:020000040800F2
:10000000E00800202902000893250008611D00086F
:100010009125000885040008672A000800000000F8
:10002000000000000000000000000000B1260008F1
:100030009D0500080000000095250008B326000873
:10004000430200084302000843020008430200087C
:10005000430200084302000843020008430200086C
:10006000430200084302000843020008430200085C
:10007000430200084302000843020008430200084C
:10008000ED04000843020008430200084302000890
:10009000430200084302000843020008430200082C
:1000A000430200084302000843020008430200081C
:1000B000430200084302000843020008430200080C
:1000C000651D0008430200084302000843020008BF
:1000D00043020008430200084302000843020008EC
:1000E00043020008430200084302000843020008DC
:1000F00043020008430200084302000843020008CC
:1001000043020008430200084302000843020008BB
:1001100043020008430200084302000843020008AB
:10012000430200084302000843020008430200089B
:10013000430200084302000843020008430200088B
:10014000430200084302000843020008430200087B
:10015000430200084302000843020008430200086B
:10016000430200084302000843020008430200085B
:100170004302000843020008430200080000000098
:10018000430200084302000800F002F800F03CF8C7
:100190000AA090E8000C82448344AAF10107DA45E2
:1001A00001D100F031F8AFF2090EBAE80F0013F0F8
:1001B000010F18BFFB1A43F0010318477429000010
:1001C00094290000103A24BF78C878C1FAD85207A1
:1001D00024BF30C830C144BF04680C6070470000C1
:1001E0000023002400250026103A28BF78C1FBD840
:1001F000520728BF30C148BF0B6070471FB502F0DF
:1002000081FC1FBD10B510BD00F007F91146FFF7C6
:10021000F5FF02F039FC00F025F903B4FFF7F2FF17
:1002200003BC00F029F9000009488047094800474D
:10023000FEE7FEE7FEE7FEE7FEE7FEE7FEE7FEE796
:10024000FEE7FEE704480549054A064B70470000F3
:100250004927000889010008E0020020E00800208A
:10026000E0040020E004002053EA020C00F0698062
:100270002DE9F04B4FF00006002B1FBFB3FA83F5BA
:1002800003FA05F424FA05F65E4012BF1643B2FAEB
:1002900082F502FA05F4C5F120051EBF22FA05FC1D
:1002A00044EA0C04203556EA044C4FEA144418BFC3
:1002B000641C4FF000084FF00009904271EB030CF2
:1002C00039D3002919BFB1FA81F701FA07F6B0FA5C
:1002D00080F700FA07F6C7F120071EBF20FA07FCD7
:1002E00046EA0C062037B6FBF4FCA7EB0507103FE7
:1002F00007F01F0BCBF120060CFA0BFB2CFA06F6CD
:1003000044BFB3460026202FA4BF5E464FF0000B2B
:100310005BEA060C08BF4FF0010B19EB0B09ABFBB6
:10032000027C48EB0608C01B06FB02CC0BFB03CC8F
:1003300071EB0C01C1E70B46024641464846BDE859
:10034000F08B13B54FF000004FF00001AFF30080C9
:10035000BDE81C40704710B5203AC0F00B80B1E8F2
:100360001850203AA0E81850B1E81850A0E81850EA
:10037000BFF4F5AF5FEA027C24BFB1E81850A0E8F3
:10038000185044BF18C918C0BDE810405FEA827C0D
:1003900024BF51F8043B40F8043B08BF7047D20724
:1003A00028BF31F8023B48BF11F8012B28BF20F8C5
:1003B000023B48BF00F8012B70474FF0000200B528
:1003C000134694469646203922BFA0E80C50A0E878
:1003D0000C50B1F12001BFF4F7AF090728BFA0E826
:1003E0000C5048BF0CC05DF804EB890028BF40F8F2
:1003F000042B08BF704748BF20F8022B11F0804F34
:1004000018BF00F8012B7047704770477047000015
:10041000004870477C02002070477546FFF7F8FFE0
:10042000AE4605006946534620F00700854618B0E1
:1004300020B5FFF707FFBDE820404FF000064FF062
:1004400000074FF000084FF0000B21F00701AC4609
:10045000ACE8C009ACE8C009ACE8C009ACE8C00928
:100460008D46704710B50446AFF300802046BDE8C6
:100470001040FFF7D2BE000001491820ABBEFEE7D6
:1004800026000200FEE710B5846B204600F0B3F8AA
:100490000120207110BD10B5846B204600F081F85A
:1004A0000120207110BD10B5846B206940F004005C
:1004B0002061204600F0A1F80120207110BD10B588
:1004C000846B206940F004002061204600F06BF846
:1004D0000120207110BD10B5806B00F08DF810BDAB
:1004E00010B5806B00F05EF810BD0000014800F010
:1004F0006BB900003801002001681823CAB2103A15
:10050000B2FBF3F2054B6FF30901032A9B5CC36551
:1005100000D9091D81650846704700000E2B0008B0
:1005200010B5014600208B698A6A4FF0C07453B140
:10053000B3F5005F15D072B1012A0CD0022A0AD09F
:10054000032A09D104E01AB1012A06D0022A03D1F4
:10055000C96AC90100D5012010BDC96AA142FAD0FB
:1005600010BD002AF7D0012AF2D0022AF3D0032AC4
:10057000F3D010BD30B50468256825F480252560CA
:10058000046863608368402B036803D09960006847
:10059000C26030BD9A600068C16030BD704772B6FD
:1005A000FEE770477047704770B500B3F9B1437903
:1005B000012B1ED0012646710223037105682C68A9
:1005C00002F0100340F6FE729A409443D1E90021F4
:1005D0000A439A4022432A6001680A68C0249C406A
:1005E000A2430A60067100214171084670BD0120D6
:1005F00070BD022070BD70477047704770B5040031
:1006000003D02079002510B105E0012070BD65718F
:10061000204600F007F8022020712561012020719A
:10062000002070BD70B586B0054614216846FFF7FE
:10063000C4FE1F492868884237D11E480026016839
:1006400041F000510160006800F000500590194829
:100650001038016841F0010101600068694600F04E
:1006600001000590102000900320CDE901061248FA
:1006700000F02EFA124C114820604FF0606060606C
:100680004020C4E902060001206140006061800052
:10069000A0614011C4E907062046666200F064F9D3
:1006A00008B1FFF77CFFAC60A56306B070BD000029
:1006B0000074004040380240000002408860024060
:1006C000380100202DE9F0410400069817460D4638
:1006D0001BD0617901291BD001266671022121718D
:1006E000C5B1E2682949D163E26829491164E26829
:1006F0002849D16421680A6842F080520A6040B3F8
:100700002268042828D01C3227E00120BDE8F081AF
:100710000220FBE7A2682049D163A2681F49116447
:10072000A2681F49D16421680A6842F480520A60B5
:1007300020B12268042804D0103203E02268083275
:1007400000E00C322068016841F400510160A068AB
:1007500009E02268143200E018322068016841F094
:1007600000510160E068394600F068F900216171CC
:1007700020B1216941F004012161C7E721680A68BD
:1007800005F010039E4032430A60BFE7970400085B
:10079000E1040008BF04000887040008D70400082B
:1007A000A704000890F83510022903D08021416584
:1007B00001207047052180F835100068016821F09C
:1007C00001010160002070472DE9F84304464FF015
:1007D0000009CDF8009063484FF41651A56D0068EC
:1007E000B0FBF1F72E6894F85C10082000FA01F1D4
:1007F00031420FD021680A6852070BD50A6822F0EF
:1008000004020A6094F85C108840A860606D40F0B3
:100810000100606594F85C104FF0010808FA01F0DF
:10082000304208D021684969090604D5A860606D86
:1008300040F00200606594F85C100420884030426B
:1008400008D021680968890704D5A860606D40F068
:100850000400606594F85C1010208840304218D085
:1008600021680968090714D5A86020680168490350
:1008700004D50068000308D5A16C07E00168C9052C
:1008800003D4016821F008010160216C09B1204600
:10089000884794F85C1020208840304231D021688D
:1008A0000968C9062DD5A86094F835000528206888
:1008B000016806D0490347D5006800031DD4616C68
:1008C0001CE021F0160101602068416921F08001DF
:1008D0004161206C08B9A06C20B12068016821F04A
:1008E0000801016094F85C103F208840A86084F8FB
:1008F000358084F83490216D1FE0E16B09B120460A
:100900008847606D00282BD0606DC00714D005208B
:1009100084F835002068016821F001010160009829
:10092000401C0090B84203D820680068C007F6D188
:1009300084F8358084F83490E16C002910D001B03F
:100940002046BDE8F04308470168C905D5D40168D1
:1009500021F01001016084F8358084F83490CCE7F0
:10096000BDE8F8830C0100202DE9F041044600F0B9
:10097000A7F906465CB1022084F83500002584F80A
:1009800034502068016821F0010101600DE0012070
:10099000BDE8F08100F094F9801B052805D92020DE
:1009A0006065032084F83500F2E720680068C0071E
:1009B000F0D12268116820480140D4E901031843AE
:1009C000D4E903363343184363691843A3691843D2
:1009D000E3691843236A18430843616A042903D171
:1009E000D4E90B1319430843106020684069666A14
:1009F00020F0070130460E43012704280CD1A06ADD
:100A00000643E06A40B12046FFF78AFD20B140204E
:100A1000606584F83570BAE7206846612046FFF7C4
:100A20006BFD94F85C203F2191408160656584F8FE
:100A300035700020ACE700003F8010F02DE9F04158
:100A40000446866D90F83400002501280DD0012061
:100A500084F8340094F835700020012F07D084F812
:100A6000340002252846BDE8F0810220FBE702277A
:100A700084F8357060652046FFF77CFD94F85C10C3
:100A80003F208840B0602068016841F01601016095
:100A9000206C20B12068016841F0080101602068E5
:100AA000016841F001010160DCE7000070B5044617
:100AB00000F006F90546601C02D0044800780444A2
:100AC00000F0FEF8401BA042FAD370BD00010020E8
:100AD0002DE9F84FDFF8BCA10022012503264FF0D5
:100AE0000F090AF1040BAAF1040E00BF0B6805FA06
:100AF00002F42340A34270D10F7907F00307012FBE
:100B000001D0022F16D187684FEA420806FA08FC86
:100B100027EA0C07D1F80CC00CFA08FC4CEA070CC9
:100B2000C0F808C04768A7430C79C4F30014944088
:100B30003C4344600C79E443A4070AD0C4684FEAFC
:100B4000420C06FA0CF7BC438F6807FA0CF72743F0
:100B5000C7600C7904F00304022C12D1D40800EB16
:100B6000840CDCF820405707FF0E09FA07F824EA46
:100B70000804D1F8108008FA07F848EA0408CCF80D
:100B8000208004684FEA420C06FA0CF7BC430F7948
:100B900007F0030707FA0CF7274307604C6814F4C3
:100BA000403F70D03C4C276847F48047276024685A
:100BB00022F0030704F480440094384C07EB040C43
:100BC000DCF8084897074FEA177809FA08F7BC439A
:100BD000334FB84202D1002724E054E0314FB842ED
:100BE00001D101271EE0304FB84201D1022719E0A0
:100BF0002E4FB84201D1032714E02D4FB84201D146
:100C000004270FE02B4FB84201D105270AE02A4FF5
:100C1000B84201D1062705E0284FB84201D1072785
:100C200000E0082707FA08F72743CCF80878DAF835
:100C300000405746D1F804C09C435FEACC2C00D555
:100C40001C433C60DBF800405F46D1F804C09C4385
:100C50005FEA8C2C00D51C433C60DEF800407746F0
:100C6000D1F804C09C435FEA8C3C00D51C433C6037
:100C7000084F083F3C68D1F804C09C435FEACC3C75
:100C800000D51C433C60521C102AFFF42FAFBDE876
:100C9000F88F0000083C0140443802400030014019
:100CA000000002400004024000080240000C024024
:100CB000001002400014024000180240001C0240D4
:100CC00001488068704700000001002070472DE94E
:100CD000F041016804464A694E6890F83E000025DC
:100CE000D743FA0506D4F243D20503D46FF48072D9
:100CF00001254A61B90508D4F143C90505D4226824
:100D00006FF4007145F002055161790525D4F14376
:100D1000C90522D4638D94F83D10226B202808D198
:100D20003BB9212910D029290ED0282901D1212A07
:100D30000AD022686FF48061516145F004051028E3
:100D400006D0402804D008E0204601F0FFF904E076
:100D50002068016841F400710160380508D4F0434F
:100D6000C00505D421686FF4006045F008054861AE
:100D7000002D07D0206C284320642046BDE8F041B8
:100D800001F05CB8BDE8F08100B50068084987B0A3
:100D900088420AD1182207A16846FFF7DCFA6423CB
:100DA00014226946094800F08BFF07B000BD00001F
:100DB00000540040493243204572726F72206F63C5
:100DC000637572726564210A00000000340200201D
:100DD00070B5040025D094F83D00002520B984F8B2
:100DE0003C50204600F048FA242084F83D0020685A
:100DF000016821F0010101602068016841F40041AF
:100E000001602068016821F40041016000F0A6FB48
:100E10004D4A6168914201D84C4900E04C498842F2
:100E200001D2012070BD4B492368B0FBF1F15E682F
:100E300026F03F060E435E606368934206D94FF486
:100E4000967359434FF47A73B1FBF3F12368491C4D
:100E50001E6A26F03F06314319626168914210D83C
:100E60004900401EB0FBF1F2521CC2F30B02042AEF
:100E700001D2042022E0B0FBF1F0401CC0F30B00D3
:100E80001CE0A268F2B301EBC10303EB0116431EA1
:100E9000B3FBF6F35B1C43F480431B0549D092B3CC
:100EA00001EBC10202EB0111401EB0FBF1F0401C4E
:100EB000C0F30B0040F4804040F400402168CA6950
:100EC0004CF6FF739A431043C861D4E907100143FD
:100ED0002068026822F0C00211430160D4E90301D6
:100EE00001432068826848F2FF339A4311438160CE
:100EF000D4E9050108432168CA6822F0FF021043C3
:100F0000C86001E00EE016E02068016841F00101D0
:100F100001602564202084F83D00256384F83E505C
:100F2000002070BD01EB4106431EB3FBF6F35B1CD2
:100F3000B3E70120C2E701EB4101401EB0FBF1F035
:100F4000401CC0F30B00B7E7A086010080841E00A0
:100F500000093D0040420F00704700002DE9F84FA6
:100F60001F4690468A460446DDF82890FFF7A8FE03
:100F7000054694F83D00202871D1192301227049BB
:100F80002046009501F056F90028F5D194F83C0070
:100F9000012864D0012084F83C0020680168C9075A
:100FA00003D1016841F0010101602068016821F46A
:100FB00000610160222084F83D00102084F83E008A
:100FC00000262664C4F824806785608D20855D48EE
:100FD000E0622B464A465146204600F0F3FF0028C7
:100FE00076D1208D584F68B1012814D0022820688E
:100FF000016816D041F48061016020684169806910
:1010000000908EE02068416981690091016841F497
:101010000071016085E02068016821F48061016051
:10102000F0E721F4806101602068016841F400610B
:10103000E2E7032846D801280AD0022810D04B4600
:10104000002239462046009501F0F4F8C8BB25E09F
:101050002A464946204601F093F990BB54E06CE0E3
:101060004B46002239462046009501F0E3F840BB8C
:101070002068016841F40071016020680069616ABC
:101080000870606A401C6062218D491E2185618D57
:10109000491E618521680969017039E0206801688D
:1010A00021F48061016020680069616A0870606AEB
:1010B000401C6062208D401E2085608D401E608532
:1010C000CEE705E02A464946204601F059F910B11D
:1010D0000120BDE8F88F20680069616A0870606AC5
:1010E000401C6062208D401E81B22185608D401EB3
:1010F000608520684269D243520712D4032903D184
:10110000016821F48061016020680069616A0870EB
:10111000606A401C6062208D401E2085608D401EEC
:101120006085208D002884D1202084F83D0084F83B
:101130003E6084F83C600020CBE70220C9E7000055
:10114000020010000000FFFF040001002DE9F84F2D
:101150001F4690468A460446DDF82890FFF7B0FD0A
:10116000054694F83D0020287FD1192301224049EB
:101170002046009501F05EF8002876D194F83C00F6
:10118000012872D0012084F83C0020680168C9075A
:1011900003D1016841F0010101602068016821F478
:1011A00000610160212084F83D00102084F83E0099
:1011B00000262664C4F824806785608D20852D482C
:1011C000E0622B464A465146204600F071FF90B936
:1011D000206841698069009036E02A4649462046E9
:1011E00001F006F950B1206C042804D12068016890
:1011F00041F4007101600120BDE8F88F606A216848
:1012000000780861606A401C6062618D491E6185DA
:10121000218D491E89B2218522685369DB435B0712
:101220000BD451B100781061606A401C6062608D1F
:10123000401E6085208D401E20852A464946204656
:1012400000F0CCFF0028CED1208D0028C5D154F865
:101250003D0B016841F400710160202004F81E0973
:10126000E67766770020C7E7FFE70220C4E70000C3
:10127000020010000000FFFF10B586B004461421E4
:101280006846FFF79AF817492068884228D116481F
:10129000016841F0020101600068694600F0020047
:1012A0000590C020009012200190012002900320A0
:1012B0000390042004900D48FFF70AFC0A48103000
:1012C000016841F4001101600068002200F4001080
:1012D00005901146202000F075F8202000F064F8F9
:1012E00006B010BD005400403038024000040240F7
:1012F000704700000248816802781144816070479D
:10130000000100200B4810B5016841F40071016034
:10131000016841F480610160016841F480710160FD
:10132000032000F06FF80F2000F006F800F024F81A
:10133000002010BD003C024070B50D4D04464FF436
:101340007A712878B1FBF0F00A490968B1FBF0F036
:1013500000F00AFB48B9102C07D200222146501E8B
:1013600000F030F800206C6070BD012070BD0000FE
:10137000000100200C0100200A4808B5016841F472
:1013800080410160006800F4804000900548001F23
:10139000016841F080510160006800F080500090C9
:1013A00008BD000044380240002809DB00F01F029D
:1013B000012191404009800000F1E020C0F80011B7
:1013C00070470000F0B40E4B1B680C46C3F30223B9
:1013D000C3F10705042D00D90425191D072901D2E1
:1013E000002300E0DB1E012606FA05F1491E21401C
:1013F00099409E40761E16403143F0BC01F034BB4C
:101400000CED00E0064900F0070208684FF6FF0304
:10141000184040EA0220034A104308607047000069
:101420000CED00E00000FA052DE9F0470E4605003E
:1014300065D0DFF81481D8F80000F7B200F007009B
:10144000B04207D288F80070D8F8000000F007001A
:10145000B04254D128683D4C810712D5400703D5CE
:10146000206840F4E05020602878000703D5206809
:1014700040F4604020602068A96820F0F000084334
:1014800020602878C0072DD03049686808390128C5
:1014900012D0022813D0032811D009688907002927
:1014A0002DDA216821F0030101432160FFF708FCD8
:1014B000814641F2883A0EE009688903EFE709683E
:1014C0008901ECE7FFF7FCFBA0EB0901514502D9CC
:1014D0000320BDE8F0872068696800F00C00B0EBDD
:1014E000810FEFD1D8F80010404601F00701B1425A
:1014F00007D90770006800F00700B04201D0012052
:10150000E7E72878400705D52068E96820F4E0502F
:10151000084320602878000706D52068296920F450
:10152000604040EAC100206000F038F82168084AB5
:10153000C1F30311515CC8400649086006480068C1
:10154000FFF7FAFE0020C4E7003C024008380240E2
:10155000162B00080C010020040100200448054956
:1015600000680968044AC1F38221515CC840704791
:101570000C01002008380240262B000804480549C9
:1015800000680968044AC1F34231515CC8407047A1
:101590000C01002008380240262B0008154810B521
:1015A000006810F00C02144813D04110042A0FD028
:1015B000082A0ED10F4C241F2268236802F03F0234
:1015C0005B0207D52068C0F38810A0FB010106E08C
:1015D000084610BD2168C1F38811A1FB000100235A
:1015E000FEF742FE2168C1F30141491C4900B0FBEE
:1015F000F1F010BD083802400024F4002DE9F84F46
:1016000004006ED02078DFF84C93C007A9F10405E0
:101610004AD009F104000168C1F38101012908D011
:101620000068C0F3810002280AD1D9F80000400206
:1016300006D52868800337D560680028E1D033E0FC
:101640006068B0F5803F10D0B0F5A02F286810D0AA
:1016500020F480302860286820F4802028606068AA
:10166000A8B1FFF72DFB06460DE0286840F4803056
:10167000F4E740F480202860F7E700BFFFF720FB85
:10168000801B642873D828688003F7D50CE0FFF727
:1016900017FB064605E000BFFFF712FB801B64281E
:1016A000F0D828688003F7D42078DFF8AC82800770
:1016B0004FF0000A3ED5A748001D016811F00C0F3D
:1016C00008D00068C0F3810002280BD1D9F80000CF
:1016D000400207D42868800716D5E068012800D1A9
:1016E00012E033E1E068B8B10120C8F80000FFF76C
:1016F000E7FA064605E000BFFFF7E2FA801B022882
:10170000C0D828688007F7D52868216920F0F8003C
:1017100040EAC10028600DE0C8F800A0FFF7D0FA49
:10172000064604E0FFF7CCFA801B02281FD8286881
:101730008007F7D42078000722D5864F8748616953
:10174000703771B101210160FFF7BAFA064604E073
:10175000FFF7B6FA801B022809D838688007F7D54A
:101760000EE0C0F800A0FFF7ABFA064605E082E005
:10177000FFF7A6FA801B02287DD838688007F7D4C7
:101780002078400768D5DFF8CCB100270BF13C0B7F
:10179000DBF80000C0000BD4DBF8001041F08051F2
:1017A000CBF80010DBF80000012700F0805000901B
:1017B0006B4E3068C00510D4306840F480703060E3
:1017C000FFF77EFA009005E0FFF77AFA0099401AD9
:1017D000022850D83068C005F6D55E4EA0686C3639
:1017E00001280FD00528306810D020F001003060AB
:1017F000306820F004003060A068B8B1FFF760FAEC
:1018000000900FE0306840F00100F4E740F0040081
:101810003060F7E7FFF754FA0099411A41F2883037
:10182000814266D830688007F4D50EE0FFF748FAA9
:10183000009007E0FFF744FA0099411A41F288301E
:10184000814256D830688007F4D42FB1DBF80010FD
:1018500021F08051CBF80010A069C8B33D49091DA3
:101860000968C1F3810102294AD00228504607D0F5
:10187000C8F8600000E03CE0FFF722FA04463BE0D5
:101880004746C8F86000FFF71BFA064605E000BFB0
:10189000FFF716FA801B02282BD828688001F7D49E
:1018A000D4E907010843A16A2E4A490802EB014125
:1018B000626A41EA8211084394F82C1040EA0161FF
:1018C000C9F8001001203866FFF7FAF9044606E06F
:1018D0003EE000BFFFF7F4F9001B022809D8286892
:1018E0008001F7D534E000BFFFF7EAF9001B0228BA
:1018F00002D90320BDE8F88F28688001F4D427E0DE
:101900000128F7D0D9F80000E26900F48001914283
:101910001CD1226A00F03F01914217D147F6C071F5
:10192000626A0140B1EB821F10D1A26A4FF0FF330F
:1019300000F4403103EB5202B1EB024F06D194F8B0
:101940002C1000F07060B0EB016F01D00120D1E7E6
:101950000020CFE70438024000004742800E474293
:10196000007000400000FFFF10B5401EB0F1807F06
:1019700001D3012010BD4FF0E02460610F216017FA
:1019800001F072F80020A06107202061002010BD46
:1019900070B590F83C20012A32D0012480F83C40F8
:1019A000022280F83D2003685A689D6822F0700684
:1019B0000A6832435A60134B02689A4214D0B2F15B
:1019C000804F11D0104B9A420ED0104B9A420BD040
:1019D0000F4B9A4208D00F4B9A4205D00E4B9A42B9
:1019E00002D00E4B9A4204D1496825F08003194376
:1019F000916080F83D40002180F83C10084670BDA1
:101A0000022070BD000001400004004000080040BA
:101A1000000C00400004014000400140001800405C
:101A200010B5040003D094F83D0010B107E0012088
:101A300010BD002084F83C00204600F01FF8022072
:101A400084F83D00211D206800F086FE012084F806
:101A5000460084F83E0084F83F0084F8400084F893
:101A6000410084F8420084F8430084F8440084F87C
:101A7000450084F83D00002010BD000008B5006856
:101A8000B0F1804F08D10548016841F001010160C3
:101A9000006800F00100009008BD000040380240DE
:101AA00090F83D10012901D001207047022180F8F3
:101AB0003D1000681149884214D0B0F1804F11D018
:101AC0000F4988420ED00F4988420BD00E498842F8
:101AD00008D00E49884205D00D49884202D00D49F0
:101AE000884204D1816801F00701062903D001680A
:101AF00041F001010160002070470000000001403A
:101B00000004004000080040000C004000040140B8
:101B1000004001400018004070B5044690F83C00B9
:101B20000025012817D0012684F83C60022084F8A3
:101B30003D002068826822F0770222F47F428260B2
:101B40000868502838D00DDC20284FD005DC90B331
:101B5000102811D14AE0022070BD302846D040281C
:101B60000AD13BE060282FD070280DD0B0F5805FFF
:101B700003D0B0F5005F12D0012584F83D6000204D
:101B800084F83C00284670BDCB68D1E9012120686B
:101B900000F04EFE2068816841F0770109E0CB68D3
:101BA000D1E90121206800F043FE2068816841F4FA
:101BB00080418160E1E719E0CA684968206800F067
:101BC00049FE5021206806E0CA684968206800F094
:101BD00052FE6021206800F035FECEE7CA684968F1
:101BE000206800F037FE40212068F4E722680146B3
:101BF0001046F0E770B5040004D094F841000025C9
:101C000010B106E0012070BD84F84050204600F07D
:101C100023F8242084F841002068C16821F4005191
:101C2000C160204600F060FE2068016921F4904107
:101C300001612068416921F02A0141612068C16881
:101C400041F40051C1606564202084F8410084F8AB
:101C500042006563002070BD10B586B004461421B3
:101C60006846FEF7AAFB1349206888421FD1124834
:101C70000021026842F400220260006800F40020A3
:101C800005900D481038026842F0010202600068B9
:101C9000022200F0010005900320CDE90210CDE9F9
:101CA00000020820049069460448FEF711FF06B0C0
:101CB00010BD0000004C00404038024000000240CF
:101CC0002DE9F843044690F84100984616460D4623
:101CD000202802D00220BDE8F88385B17EB1002023
:101CE0006064212084F84100FEF7EAFFA684814663
:101CF000E684A0682027B0F5805F02D003E00120D1
:101D0000E9E7206910B12E4600250EE000260CE020
:101D10008021204600F06EFEA8B9C6B116F8010B6E
:101D200021684860E08C401EE084E08C4B464FF018
:101D30000002CDF800800028EAD14FF04001204693
:101D400000F058FE40B184F841700320C3E735F835
:101D5000020BC0F30800E3E784F841700020BAE703
:101D6000FEE700000148FEF7B2BF00009801002026
:101D700038B5806B002190F83D202B4B46F2A8141B
:101D80001B68B3FBF4F3C3EBC30303EB83030093C0
:101D90003BB15B1E009303681B689B0505D5009B48
:101DA000F6E7036C43F020030364436B03B1D9638C
:101DB000836B03B1D96303681C6824F480641C60DE
:101DC0004185436B03B11965836B03B119650368E2
:101DD0001C6824F001041C6090F83D402023602C16
:101DE0000BD0282434EA02020FD080F83D3080F86E
:101DF0003E1000BFFEF7C8FF38BD80F83D3080F8C8
:101E00003E100164FEF762FF38BD0268136843F0BC
:101E1000010313600268136843F480631360016375
:101E200080F83D40E6E700000C01002000684169B1
:101E3000C943090601D400210161704770B5044609
:101E400090F83D0094F83E10102901D0402906D1A9
:101E5000222804D121680A6822F400620A6028213D
:101E600031EA00024FF000054FF0200626D021682D
:101E70004968090505D4602803D084F83D6084F8DA
:101E80003E50256320684168090537D5416821F433
:101E900000614160606B90F835203C49012A11D007
:101EA0000165606BFEF77EFC38B32068016821F0A5
:101EB0000101016084F83D60606B1CE0256384F8DB
:101EC0003D10DFE7A06B0165A06BFEF76BFCA0B1D6
:101ED00020684169C943490605D40069616A0870F0
:101EE000606A401C60622068016821F001010160A5
:101EF00084F83D60A06B016D884710E094F83D10B8
:101F0000602910D04169C943490605D40069616A56
:101F10000870606A401C60622046FEF735FF206C46
:101F2000C1071CD115E084F83D6025644169C943AF
:101F3000490605D40069616A0870606A401C6062E5
:101F40002068016821F0010101602046FEF7BEFE15
:101F5000E5E7810703D4410701D4000704D52068D1
:101F6000416821F4E061416094F83D00216C49072B
:101F70000BD5282809D10648E062256384F83D6026
:101F800084F83E502046FEF7E7FF70BD711D000843
:101F90000000FFFF01684A69D24352050FD46FF475
:101FA00080624A61002140F8301F20224273817311
:101FB000026942F0040202610173012070470020AF
:101FC000704700002DE9F84F0446C06A1E4693464C
:101FD0000D4621680A6842F480620A60082807D02A
:101FE000012805D010F5803F02D0206B112804D1C4
:101FF0002068016841F4807101604FF001195B466F
:10200000002249462046009600F014F94FF400786B
:1020100040B120680068C00501D5C4F840800320A5
:10202000BDE8F88F2069DFF884A0B0F5804F0FD0AD
:102030000620216800EAD51747F0F0000861334612
:102040005A460AF10601204600F03CF958BB03E06D
:10205000E8B240F001001CE02168E8B208613346B4
:102060005A465146204600F02DF9E0B920684169F2
:1020700081690091016841F4807101605B46002232
:1020800049462046009600F0D5F80028C1D147F017
:10209000F1002168086133465A465146204600F057
:1020A00011F90028BCD00120BAE7000002000100AD
:1020B000F8B50446C06A1E460D461746082807D0E4
:1020C000012805D010F5803F02D0206B122804D1E2
:1020D0002068016841F480710160134600224FF0CE
:1020E00001112046009600F0A5F840B12068006874
:1020F000C00502D54FF4007020640320F8BD2069AC
:10210000B0F5804F0ED00620216800EAD51040F0CF
:10211000F000086133463A460B49204600F0D2F8F9
:1021200078B902E005F0FE0000E0E8B2216808613D
:10213000054933463A46891F204600F0C3F8002877
:10214000DCD00120F8BD0000080001002DE9F041BD
:1021500090F83D300446C26A002120261E4F0068D8
:102160006FF48065082A01D0202A01D1282B04D0E1
:10217000212B17D04561BDE8F081E762426822F467
:10218000E0624260206845612068026822F4806253
:102190000260216384F83D6084F83E102046FEF71B
:1021A000DBFEE8E7E7622122226384F83D6084F8E1
:1021B0003E10416821F4E06141602068456120687B
:1021C000016821F4806101602046FFF72FFE204660
:1021D000FFF78EF8CFE700000000FFFF70B516464E
:1021E0000D4604461EE02046FFF7D4FE08B101204C
:1021F00070BD681C16D0FEF763FD801BA84200D896
:1022000085B920684069C04340070BD5002044F8D9
:10221000300F20216173A073216941F020012161F9
:102220002073E4E720684069C0434007DBD4002006
:1022300070BD00002DE9F047984617460D4604464C
:10224000C1F30746DDF820902AE000BFB8F1FF3F58
:1022500026D0FEF735FDA0EB0901414502D8B8F1C3
:10226000000F1DD12068012E16D0806925EA0000DC
:102270000004000C12D00020B84211D1002044F814
:10228000300F20216173A073216941F02001216189
:1022900020730120BDE8F0874069E7E70120EBE704
:1022A0002068012E0AD0806925EA00000004000C95
:1022B00006D00020B842C9D00020EBE74069F3E720
:1022C0000120F7E72DE9F047984616460D460446EB
:1022D0004FF000094FF0200AC1F3074723E02068C0
:1022E0004069C043400515D42068016841F400717D
:1022F000016021686FF480604861C4F8309084F810
:102300003DA084F83E90216C41F00401216484F8E2
:102310003C9021E0701C06D0FEF7D2FCA0EB080038
:10232000B04203D816B1012F1FD021E02068012F41
:1023300015D0806925EA00000004000C18D000BF09
:1023400044F8309F84F80DA084F80E90216941F084
:102350002001216184F80C900120BDE8F0874069DC
:1023600025EA00000004000CEAD12068406901E081
:102370002068806925EA00000004000CAFD1ECE77A
:102380002DE9F041002590460E460446202728E01E
:102390004069C043C0060CD454F8301B6FF01000E5
:1023A000486144F810596777A577206A206225773D
:1023B00014E0FEF785FCA0EB0800B04200D886B917
:1023C00020684069C04340060BD544F8305F67730E
:1023D000A573206940F02000206125730120BDE82D
:1023E000F08120684169C9434906D1D40020F6E74D
:1023F00070B516460D4604461EE02046FFF7CAFD9E
:1024000008B1012070BD681C16D0FEF759FC801B76
:10241000A84200D885B920684069C04300060BD5A2
:10242000002044F8300F20216173A073216941F02E
:10243000200121612073E4E720684069C043000661
:10244000DBD4002070BD00001CB500200D490090B9
:1024500001900B4808600846FEF7D0F808B1FEF777
:102460009EF8242000900220019000226946054831
:10247000FEF79AF8002801D0FEF791F81CBD000085
:102480000074004024010020094808B5016841F4A7
:10249000001101600068002200F400100090114655
:1024A0001020FEF78FFFBDE808401020FEF77CBF2C
:1024B000303802400D4810B50B4901600C494160AD
:1024C0000021B022C0E902124FF48042C0E9042189
:1024D0008161C1610162FEF77BFC002803D0BDE889
:1024E0001040FEF75CB810BD005400409801002079
:1024F000A086010010B586B000241648009401940F
:102500000294039404944FF080410594C0E90014B0
:102510004721C0E90241802104618161FFF780FA0F
:1025200008B1FEF73CF84FF4805000906946094826
:10253000FFF7F2FA08B1FEF732F82020CDE90404E3
:1025400004A90448FFF724FA002801D0FEF727F871
:1025500006B010BDEC0100200C4810B50A4901601E
:102560004FF4E1314160002181600C22C160C0E97B
:1025700004128161C161FFF73DFB002803D0BDE873
:102580001040FEF70CB810BD004C00403402002093
:10259000FEE7FEE77047000008B5642200920B4694
:1025A000024658210148FEF7D9FC08BD98010020D9
:1025B00008B5642200920B46024658210148FEF7F6
:1025C000C5FD08BD9801002038B517A0048800207B
:1025D000C4F3072100F062F81420FEF767FAE1B2B5
:1025E000002000F05BF89FED110A00F03BF8A921F4
:1025F000022000F053F83221042000F04FF832217D
:10260000102000F04BF80021122000F047F8694636
:10261000002000F01BF89DF8000040F02001002091
:1026200000F03CF838BD0000008000000000AF4220
:1026300038B5044600208DF8000001216846FFF7F8
:10264000B7FF13212046FFF7A7FF38BD13B50C468F
:1026500001216846FFF7ACFF01212046FFF79CFFF0
:102660001CBD0000DFED0B0A10B530EE600ADFED97
:102670000A0A002080EE201ABCEEC10A10EE104AB1
:10268000C4F3012100F00AF8E1B2BDE810400120D6
:1026900000F004B800009842CDCC4C3D08B58DF850
:1026A00000008DF8011002216846FFF781FF08BD88
:1026B0007047FEF71FBE000030B593B0302168466A
:1026C000FDF77BFE14210CA8FDF777FE1C480025C2
:1026D000016841F080510160006800F08050119065
:1026E0001848016841F4804101600068022400F448
:1026F0008040119001200090000401908001CDE9FC
:10270000064008AA0420482182E813000B9068467E
:10271000FEF774FF08B172B6FEE70CA90F2081E83E
:1027200031004FF480500F90109002210CA8FEF75A
:102730007BFE002801D072B6FEE713B030BD00006A
:1027400040380240007000400248016841F47001C6
:102750000160704788ED00E0F0B50268294C2A4D11
:102760002A4E2B4F2B4B4FF0804CA04209D0604596
:1027700007D0A84205D0B04203D0B84201D0984259
:1027800004D122F0700E4A6842EA0E02A0421BD029
:10279000604519D0A84217D0B04215D0B84213D026
:1027A000984211D01C4DA8420ED01C4DA8420BD00F
:1027B0001B4DA84208D01B4DA84205D01A4DA84277
:1027C00002D01A4DA84203D122F44075CA682A43A8
:1027D0004D6922F080022A4302608A68C2620A6858
:1027E0008262A04201D0984201D1096901630121AE
:1027F00041610169C90703D0016921F0010101614B
:10280000F0BD00000000014000040040000800404E
:10281000000C004000040140004001400044014021
:102820000048014000180040001C0040002000400B
:1028300010B5846842EA032224F47F440A43224309
:10284000826010BD826822F070020A4342F00701E4
:102850008160704710B5036A046A24F001040462C1
:10286000846924F0F00444EA021423F00A020A43C3
:102870008461026210BD10B5036A046A24F010047A
:102880000462846923F0A00324F4704444EA023211
:1028900043EA01118261016210BD01680C3151E807
:1028A000002F22F4907241E80023002BF5D101683B
:1028B000143151E8002F22F0010241E80023002BDF
:1028C000F5D1016B012909D101680C3151E8002FC4
:1028D00022F0100241E80023002BF5D1202180F8DE
:1028E000421000210163704770B504460068016919
:1028F000E26821F44051114301612169A068E26955
:1029000008436169114308432168CA6849F20C63AE
:102910009A430243CA6020684169A26921F4407168
:102920001143416131492068884202D030498842D0
:1029300002D1FEF723FE01E0FEF710FEE26900235C
:10294000192164253226B2F5004F626828D0A0FB19
:102950000101930F9200FDF787FC0146B0FBF5F0F3
:102960006FF01802504301EB800006EB0010B0FB43
:10297000F5F000F0F002B1FBF5F002EB0012B1FB54
:10298000F5F06FF01803584301EB800006EB0010E0
:10299000B0FBF5F000F00F0021681044886070BDB6
:1029A000A0FB010192185B41FDF75EFC0146B0FB04
:1029B000F5F00201B1FBF5F06FF01803584301EB9D
:1029C000800006EBC000B0FBF5F000F0F80002EB71
:1029D0004002B1FBF5F0584301EB800006EBC0006C
:1029E000B0FBF5F000F00700D6E700000010014052
:1029F000001401402DE9F843984617460D46044659
:102A0000089E24E0701C22D0FEF75AF9A0EB0800C3
:102A1000B0421AD8CEB12068C168490717D5802DB9
:102A200015D0402D13D00168C94309070FD40168A0
:102A30000025406800902046FFF72FFF08206064C3
:102A400084F840500120BDE8F8830320FBE72068AC
:102A5000006835EA000004D00020B842D2D000203F
:102A6000F1E70120F9E7FEE70907090E002804DB7A
:102A700000F1E02080F80014704700F00F0000F132
:102A8000E02080F8141D704708B5FEF73BFCFFF707
:102A900013FEFFF7F9FCFFF70DFDFFF72BFDFFF726
:102AA000D3FCFFF759FD1248FEF7FAFF002001465C
:102AB000009080230F4A1048FDF704FE6420FDF7C4
:102AC000F5FF0E48FFF7B4FD4FF47A742346132246
:102AD0000A490B48FFF7F4F8FFF776FD0748FFF7C0
:102AE000A7FD2346132205490548FFF7E9F8FEE74D
:102AF000EC01002000000020240100201001002033
:102B0000340200204FF04070E1EE100A70470006DA
:102B10001016000610160000000000000000010260
:102B20000304060708090000000001020304000076
:102B3000502B00080000002010010000C401000814
:102B4000602C000810010020D0070000E001000800
:102B500000086408C8082C098F09F109520AB10A53
:102B60000F0B6B0BC40B1C0C710CC30C120D5E0D08
:102B7000A70DEC0D2E0E6C0EA60EDB0E0D0F3A0FF0
:102B8000630F870FA60FC10FD70FE80FF50FFC0FCC
:102B9000FF0FFC0FF50FE80FD70FC10FA60F870F20
:102BA000630F3A0F0D0FDB0EA60E6C0E2E0EEC0D02
:102BB000A70D5E0D120DC30C710C1C0CC40B6B0B1E
:102BC0000F0BB10A520AF1098F092C09C8086408D1
:102BD00000089B073707D30670060E06AD054E05A5
:102BE000F00494043B04E3038E033C03ED02A102D2
:102BF00058021302D101930159012401F200C500CA
:102C00009C00780059003E00280017000A000300CD
:102C1000010003000A00170028003E005900780058
:102C20009C00C500F200240159019301D101130257
:102C30005802A102ED023C038E03E3033B0494041B
:102C4000F0044E05AD050E067006D30637079B0748
:102C50000100000010000000000000000024F4004B
:040000050800018965
:00000001FF
