:020000040800F2
:10000000E008002031020008DB260008312100084A
:10001000D926000855060008BF2C00080000000083
:100020000000000000000000000000002B28000875
:100030006D07000800000000DD2600082D280008DC
:100040004B0200084B0200084B0200084B0200085C
:100050004B0200084B0200084B0200084B0200084C
:100060004B0200084B0200084B0200084B0200083C
:100070004B0200084B0200084B0200084B0200082C
:10008000BD0600084B0200084B0200084B020008A6
:100090004B0200084B0200084B0200084B0200080C
:1000A0004B0200084B0200084B0200084B020008FC
:1000B0004B0200084B0200084B0200084B020008EC
:1000C0004B0200084B0200084B0200084B020008DC
:1000D0004B0200084B0200084B0200084B020008CC
:1000E0004B0200084B0200084B0200084B020008BC
:1000F0004B0200084B0200084B0200084B020008AC
:100100004B0200084B0200084B0200084B0200089B
:10011000152A00084B0200084B0200084B02000899
:100120004B0200084B0200084B0200084B0200087B
:100130004B0200084B0200084B0200084B0200086B
:100140004B0200084B0200084B0200084B0200085B
:100150004B0200084B0200084B0200084B0200084B
:100160004B0200084B0200084B0200084B0200083B
:100170004B0200084B0200084B0200080000000080
:100180004B0200084B02000800F002F800F040F8B3
:100190000AA090E8000C82448344AAF10107DA45E2
:1001A00001D100F035F8AFF2090EBAE80F0013F0F4
:1001B000010F18BFFB1A43F001031847CC2B0000B6
:1001C000EC2B0000103A24BF78C878C1FAD8520747
:1001D00024BF30C830C144BF04680C6070470000C1
:1001E0000023002400250026103A28BF78C1FBD840
:1001F000520728BF30C148BF0B6070471FB502F0DF
:10020000ADFD9DE8030000F047F91FBD10B510BD1E
:1002100000F09EF91146FFF7F1FF02F061FD00F0DA
:10022000BCF903B4FFF7F2FF03BC00F0EDF90000E6
:100230000948804709480047FEE7FEE7FEE7FEE77A
:10024000FEE7FEE7FEE7FEE7FEE7FEE704480549B6
:10025000054A064B70470000C128000889010008C4
:10026000E0020020E0080020E0040020E00400207C
:1002700070B5064600F0F4F8056806F10B0020F0B2
:100280000704B4429CBF002070BD2B466A68BAB117
:100290001068A04210D304F1080188423CBF5068A6
:1002A000586007D35168101941601168091B01603B
:1002B00058601460101D70BD13465268002AE7D1C3
:1002C0002146284600F0D4F80028DED170BD70B574
:1002D0000446051F00F0C4F80068002C14BF4468F1
:1002E00070BD002C18BFAC423CBF20466468F8D3F8
:1002F00001680A18AA4218BF456003D12A6805465A
:100300001144016028684119A1421CBF6C6070BD96
:100310006168696021680844286070BD53EA020C76
:1003200000F069802DE9F04B4FF00006002B1FBF55
:10033000B3FA83F503FA05F424FA05F65E4012BF1A
:100340001643B2FA82F502FA05F4C5F120051EBF84
:1003500022FA05FC44EA0C04203556EA044C4FEA24
:10036000144418BF641C4FF000084FF0000990427D
:1003700071EB030C39D3002919BFB1FA81F701FAE7
:1003800007F6B0FA80F700FA07F6C7F120071EBF9C
:1003900020FA07FC46EA0C062037B6FBF4FCA7EB74
:1003A0000507103F07F01F0BCBF120060CFA0BFBE3
:1003B0002CFA06F644BFB3460026202FA4BF5E46A3
:1003C0004FF0000B5BEA060C08BF4FF0010B19EB76
:1003D0000B09ABFB027C48EB0608C01B06FB02CCFA
:1003E0000BFB03CC71EB0C01C1E70B460246414607
:1003F0004846BDE8F08B13B54FF000004FF0000108
:10040000AFF30080BDE81C4070474FF0000200B51C
:10041000134694469646203922BFA0E80C50A0E827
:100420000C50B1F12001BFF4F7AF090728BFA0E8D5
:100430000C5048BF0CC05DF804EB890028BF40F8A1
:10044000042B08BF704748BF20F8022B11F0804FE3
:1004500018BF00F8012B70477047704770470000C5
:10046000004870478402002070477047704770470B
:1004700038B504460A4600206946AFF300800028DC
:1004800008BF38BD02460099204600F03FF8012021
:1004900038BD012000F054B8F8B5AFF30080054630
:1004A00000200C46102000BF0646A819A0420DD916
:1004B000324669460020AFF30080070008BF00F015
:1004C0003FF80098A04218BF0546C419FFF7C8FFBF
:1004D00005600746F01D20F007004619284600F089
:1004E0000AF8B44208BFF8BDA21B31463868BDE81F
:1004F000F84000F00BB800210160C0E9011070471E
:1005000010207047004870477C0200200346406876
:100510008C46002818BF88423CBF03464068F8D389
:1005200018681844884207D00CF1030020F0070037
:10053000001D411A521A0146081D0A60FFF7C7BE86
:1005400010B500F039F8BDE8104000F02FB8704742
:100550007546FFF7D7FFAE4605006946534620F0C3
:100560000700854618B020B5FFF770FEBDE82040B3
:100570004FF000064FF000074FF000084FF0000B5F
:1005800021F00701AC46ACE8C009ACE8C009ACE812
:10059000C009ACE8C0098D46704710B50446AFF3FA
:1005A00000802046BDE81040FFF73BBE002801D088
:1005B00000F02AB87047000010B5012805D00021CE
:1005C00003A000F027F8012010BD09A1F8E7000002
:1005D00053494752544D454D3A204F7574206F662C
:1005E0002068656170206D656D6F72790000000094
:1005F0003A2048656170206D656D6F727920636F78
:10060000727275707465640001491820ABBEFEE714
:100610002600020070B505460C460A2000E06D1C5D
:1006200000F011F835B128780028F8D102E0641CF8
:1006300000F009F814B120780028F8D1BDE8704026
:100640000A20AFF3008008B569468DF8000003204A
:10065000ABBE08BDFEE710B5846B204600F0B3F8D2
:100660000120207110BD10B5846B204600F081F888
:100670000120207110BD10B5846B206940F004008A
:100680002061204600F0A1F80120207110BD10B5B6
:10069000846B206940F004002061204600F06BF874
:1006A0000120207110BD10B5806B00F08DF810BDD9
:1006B00010B5806B00F05EF810BD0000014800F03E
:1006C000B5B900003801002001681823CAB2103AF9
:1006D000B2FBF3F2054B6FF30901032A9B5CC36580
:1006E00000D9091D8165084670470000662D000885
:1006F00010B5014600208B698A6A4FF0C07453B16F
:10070000B3F5005F15D072B1012A0CD0022A0AD0CD
:10071000032A09D104E01AB1012A06D0022A03D122
:10072000C96AC90100D5012010BDC96AA142FAD029
:1007300010BD002AF7D0012AF2D0022AF3D0032AF2
:10074000F3D010BD30B50468256825F480252560F8
:10075000046863608368402B036803D09960006875
:10076000C26030BD9A600068C16030BD704772B62B
:10077000FEE770477047704770B500B3F9B1437931
:10078000012B1ED0012646710223037105682C68D7
:1007900002F0100340F6FE729A409443D1E9002122
:1007A0000A439A4022432A6001680A68C0249C4098
:1007B000A2430A60067100214171084670BD012004
:1007C00070BD022070BD70477047704770B504005F
:1007D00003D02079002510B105E0012070BD6571BE
:1007E000204600F007F802202071256101202071C9
:1007F000002070BD70B586B0054614216846FFF72D
:1008000004FE1F492868884237D11E480026016827
:1008100041F000510160006800F000500590194857
:100820001038016841F0010101600068694600F07C
:1008300001000590102000900320CDE90106124828
:1008400000F078FA124C114820604FF06060606050
:100850004020C4E902060001206140006061800080
:10086000A0614011C4E907062046666200F0AEF9B7
:1008700008B1FFF77CFFAC60A56306B070BD000057
:10088000007400404038024000000240886002408E
:10089000380100202DE9F0410400069817460D4666
:1008A0001BD0617901291BD00126667102212171BB
:1008B000C5B1E2682949D163E26829491164E26857
:1008C0002849D16421680A6842F080520A6040B326
:1008D0002268042828D01C3227E00120BDE8F081DE
:1008E0000220FBE7A2682049D163A2681F49116476
:1008F000A2681F49D16421680A6842F480520A60E4
:1009000020B12268042804D0103203E022680832A3
:1009100000E00C322068016841F400510160A068D9
:1009200009E02268143200E018322068016841F0C2
:1009300000510160E068394600F0B2F900216171B0
:1009400020B1216941F004012161C7E721680A68EB
:1009500005F010039E4032430A60BFE767060008B7
:10096000B10600088F06000857060008A706000811
:10097000770600082DE9F0410446876D00F0D2FAB1
:10098000064694F835000025022806D080206065D0
:1009900084F834500120BDE8F0812068016821F01E
:1009A000160101602068416921F080014161206CDD
:1009B00008B9A06C20B12068016821F0080101602D
:1009C0002068016821F0010101600CE000F0AAFA42
:1009D000801B052807D920206065032084F8350096
:1009E00084F83450D7E720680068C007EED194F847
:1009F0005C103F208840B860012084F8350084F8FE
:100A000034500020C7E790F83510022903D0802128
:100A1000416501207047052180F8351000680168A4
:100A200021F0010101600020704700002DE9F8432A
:100A300004464FF00009CDF8009063484FF416517A
:100A4000A56D0068B0FBF1F72E6894F85C100820E3
:100A500000FA01F131420FD021680A6852070BD524
:100A60000A6822F004020A6094F85C108840A860CA
:100A7000606D40F00100606594F85C104FF0010873
:100A800008FA01F0304208D021684969090604D506
:100A9000A860606D40F00200606594F85C1004206E
:100AA0008840304208D021680968890704D5A860C9
:100AB000606D40F00400606594F85C101020884080
:100AC000304218D021680968090714D5A860206849
:100AD0000168490304D50068000308D5A16C07E04C
:100AE0000168C90503D4016821F008010160216C87
:100AF00009B12046884794F85C1020208840304295
:100B000031D021680968C9062DD5A86094F8350050
:100B100005282068016806D0490347D5006800030E
:100B20001DD4616C1CE021F0160101602068416950
:100B300021F080014161206C08B9A06C20B12068CF
:100B4000016821F00801016094F85C103F208840A2
:100B5000A86084F8358084F83490216D1FE0E16B43
:100B600009B120468847606D00282BD0606DC00712
:100B700014D0052084F835002068016821F00101B7
:100B800001600098401C0090B84203D820680068BB
:100B9000C007F6D184F8358084F83490E16C0029E0
:100BA00010D001B02046BDE8F04308470168C905F0
:100BB000D5D4016821F01001016084F8358084F8F3
:100BC0003490CCE7BDE8F8830C0100202DE9F0411A
:100BD000044600F0A7F906465CB1022084F835000F
:100BE000002584F834502068016821F0010101607B
:100BF0000DE00120BDE8F08100F094F9801B05288C
:100C000005D920206065032084F83500F2E72068CC
:100C10000068C007F0D12268116820480140D4E97B
:100C200001031843D4E90336334318436369184377
:100C3000A3691843E3691843236A18430843616AA8
:100C4000042903D1D4E90B13194308431060206829
:100C50004069666A20F0070130460E4301270428E8
:100C60000CD1A06A0643E06A40B12046FFF740FD80
:100C700020B14020606584F83570BAE7206846618D
:100C80002046FFF721FD94F85C203F2191408160D0
:100C9000656584F835700020ACE700003F8010F0F7
:100CA0002DE9F0410446866D90F8340000250128B6
:100CB0000DD0012084F8340094F835700020012F05
:100CC00007D084F8340002252846BDE8F0810220D0
:100CD000FBE7022784F8357060652046FFF732FD98
:100CE00094F85C103F208840B0602068016841F0B3
:100CF00016010160206C20B12068016841F00801F4
:100D000001602068016841F001010160DCE700003A
:100D100070B5044600F006F90546601C02D0044890
:100D20000078044400F0FEF8401BA042FAD370BDE6
:100D3000000100202DE9F84FDFF8BCA100220125B9
:100D400003264FF00F090AF1040BAAF1040E00BFAD
:100D50000B6805FA02F42340A34270D10F7907F023
:100D60000307012F01D0022F16D187684FEA4208EE
:100D700006FA08FC27EA0C07D1F80CC00CFA08FCAC
:100D80004CEA070CC0F808C04768A7430C79C4F3C5
:100D9000001494403C4344600C79E443A4070AD017
:100DA000C4684FEA420C06FA0CF7BC438F6807FA96
:100DB0000CF72743C7600C7904F00304022C12D10E
:100DC000D40800EB840CDCF820405707FF0E09FA2A
:100DD00007F824EA0804D1F8108008FA07F848EA6E
:100DE0000408CCF8208004684FEA420C06FA0CF79D
:100DF000BC430F7907F0030707FA0CF72743076096
:100E00004C6814F4403F70D03C4C276847F480474E
:100E10002760246822F0030704F480440094384CCF
:100E200007EB040CDCF8084897074FEA177809FA33
:100E300008F7BC43334FB84202D1002724E054E006
:100E4000314FB84201D101271EE0304FB84201D1E5
:100E5000022719E02E4FB84201D1032714E02D4F8D
:100E6000B84201D104270FE02B4FB84201D105272A
:100E70000AE02A4FB84201D1062705E0284FB842C0
:100E800001D1072700E0082707FA08F72743CCF825
:100E90000878DAF800405746D1F804C09C435FEA6E
:100EA000CC2C00D51C433C60DBF800405F46D1F8F9
:100EB00004C09C435FEA8C2C00D51C433C60DEF8E8
:100EC00000407746D1F804C09C435FEA8C3C00D5D3
:100ED0001C433C60084F083F3C68D1F804C09C4369
:100EE0005FEACC3C00D51C433C60521C102AFFF446
:100EF0002FAFBDE8F88F0000083C014044380240A5
:100F0000003001400000024000040240000802409E
:100F1000000C024000100240001402400018024081
:100F2000001C02400148806870470000000100205A
:100F300070B5040025D094F83D00002520B984F850
:100F40003C50204600F046FA242084F83D002068FA
:100F5000016821F0010101602068016841F400414D
:100F600001602068016821F40041016000F09AFBF3
:100F70004D4A6168914201D84C4900E04C49884291
:100F800001D2012070BD4B492368B0FBF1F15E68CE
:100F900026F03F060E435E606368934206D94FF425
:100FA000967359434FF47A73B1FBF3F12368491CEC
:100FB0001E6A26F03F06314319626168914210D8DB
:100FC0004900401EB0FBF1F2521CC2F30B02042A8E
:100FD00001D2042022E0B0FBF1F0401CC0F30B0072
:100FE0001CE0A268F2B301EBC10303EB0116431E40
:100FF000B3FBF6F35B1C43F480431B0549D092B36B
:1010000001EBC10202EB0111401EB0FBF1F0401CEC
:10101000C0F30B0040F4804040F400402168CA69EE
:101020004CF6FF739A431043C861D4E9071001439B
:101030002068026822F0C00211430160D4E9030174
:1010400001432068826848F2FF339A43114381606C
:10105000D4E9050108432168CA6822F0FF02104361
:10106000C86001E00EE016E02068016841F001016F
:1010700001602564202084F83D00256384F83E50FB
:10108000002070BD01EB4106431EB3FBF6F35B1C71
:10109000B3E70120C2E701EB4101401EB0FBF1F0D4
:1010A000401CC0F30B00B7E7A086010080841E003F
:1010B00000093D0040420F002DE9F84F1F469046C1
:1010C0008A460446DDF82890FFF72CFF054694F881
:1010D0003D00202871D11923012270492046009536
:1010E00001F02EF90028F5D194F83C00012864D0D5
:1010F000012084F83C0020680168C90703D1016819
:1011000041F0010101602068016821F40061016083
:10111000222084F83D00102084F83E00002626643A
:10112000C4F824806785608D20855D48E0622B4689
:101130004A465146204601F013F8002876D1208D0A
:10114000584F68B1012814D002282068016816D0D1
:1011500041F48061016020684169806900908EE0FF
:101160002068416981690091016841F40071016062
:1011700085E02068016821F480610160F0E721F4D6
:10118000806101602068016841F40061E2E70328A2
:1011900046D801280AD0022810D04B4600223946F2
:1011A0002046009501F0CCF8C8BB25E02A46494608
:1011B000204601F06BF990BB54E06CE04B460022F6
:1011C00039462046009501F0BBF840BB2068016815
:1011D00041F40071016020680069616A0870606A0A
:1011E000401C6062218D491E2185618D491E6185EB
:1011F00021680969017039E02068016821F4806183
:10120000016020680069616A0870606A401C606261
:10121000208D401E2085608D401E6085CEE705E054
:101220002A464946204601F031F910B10120BDE8B7
:10123000F88F20680069616A0870606A401C60620B
:10124000208D401E81B22185608D401E6085206802
:101250004269D243520712D4032903D1016821F411
:101260008061016020680069616A0870606A401CE2
:101270006062208D401E2085608D401E6085208D1F
:10128000002884D1202084F83D0084F83E6084F852
:101290003C600020CBE70220C9E7000002001000FC
:1012A0000000FFFF040001002DE9F84F1F469046A3
:1012B0008A460446DDF82890FFF734FE054694F888
:1012C0003D0020287FD11923012240492046009566
:1012D00001F036F8002876D194F83C00012872D04D
:1012E000012084F83C0020680168C90703D1016827
:1012F00041F0010101602068016821F40061016092
:10130000212084F83D00102084F83E000026266449
:10131000C4F824806785608D20852D48E0622B46C7
:101320004A465146204600F091FF90B92068416935
:101330008069009036E02A464946204601F0DEF8F2
:1013400050B1206C042804D12068016841F4007178
:1013500001600120BDE8F88F606A216800780861AB
:10136000606A401C6062618D491E6185218D491E45
:1013700089B2218522685369DB435B070BD451B1E5
:1013800000781061606A401C6062608D401E60855C
:10139000208D401E20852A464946204600F0A4FFA5
:1013A0000028CED1208D0028C5D154F83D0B01680E
:1013B00041F400710160202004F81E09E677667789
:1013C0000020C7E7FFE70220C4E70000020010008A
:1013D0000000FFFF10B586B0044614216846FFF7F1
:1013E00014F813492068884220D11248002102686D
:1013F00042F002020260006800F002000590C02086
:1014000000901220CDE901010320039004200490F4
:1014100069460948FFF78EFC06481030016841F420
:1014200000110160006800F40010059006B010BDC6
:1014300000540040303802400004024002488168F5
:101440000278114481607047000100200B4810B5FC
:10145000016841F400710160016841F4806101603C
:10146000016841F480710160032000F06FF80F20E3
:1014700000F006F800F024F8002010BD003C024007
:1014800070B50D4D04464FF47A712878B1FBF0F039
:101490000A490968B1FBF0F000F00AFB48B9102CCA
:1014A00007D200222146501E00F030F800206C6068
:1014B00070BD012070BD0000000100200C01002063
:1014C0000A4808B5016841F480410160006800F4F1
:1014D000804000900548001F016841F08051016084
:1014E000006800F08050009008BD000044380240C1
:1014F000002809DB00F01F02012191404009800013
:1015000000F1E020C0F8001170470000F0B40E4B6D
:101510001B680C46C3F30223C3F10705042D00D951
:101520000425191D072901D2002300E0DB1E012636
:1015300006FA05F1491E214099409E40761E16404C
:101540003143F0BC01F0BCBB0CED00E0064900F0FB
:10155000070208684FF6FF03184040EA0220034ADA
:1015600010430860704700000CED00E00000FA0531
:101570002DE9F0470E46050065D0DFF81481D8F854
:101580000000F7B200F00700B04207D288F8007000
:10159000D8F8000000F00700B04254D128683D4C54
:1015A000810712D5400703D5206840F4E050206041
:1015B0002878000703D5206840F460402060206848
:1015C000A96820F0F000084320602878C0072DD0DB
:1015D000304968680839012812D0022813D003283E
:1015E00011D00968890700292DDA216821F003014B
:1015F00001432160FFF796FC814641F2883A0EE0F4
:1016000009688903EFE709688901ECE7FFF78AFCBD
:10161000A0EB0901514502D90320BDE8F0872068FD
:10162000696800F00C00B0EB810FEFD1D8F8001022
:10163000404601F00701B14207D90770006800F089
:101640000700B04201D00120E7E72878400705D520
:101650002068E96820F4E0500843206028780007FB
:1016600006D52068296920F4604040EAC100206066
:1016700000F038F82168084AC1F30311515CC840F2
:101680000649086006480068FFF7FAFE0020C4E734
:10169000003C0240083802406E2D00080C0100207A
:1016A000040100200448054900680968044AC1F3A0
:1016B0008221515CC84070470C010020083802406C
:1016C0007E2D00080448054900680968044AC1F3F2
:1016D0004231515CC84070470C010020083802407C
:1016E0007E2D0008154810B5006810F00C02144853
:1016F00013D04110042A0FD0082A0ED10F4C241FFA
:101700002268236802F03F025B0207D52068C0F31D
:101710008810A0FB010106E0084610BD2168C1F356
:101720008811A1FB00010023FEF7F8FD2168C1F339
:101730000141491C4900B0FBF1F010BD08380240DE
:101740000024F4002DE9F84F04006ED02078DFF873
:101750004C93C007A9F104054AD009F104000168BF
:10176000C1F38101012908D00068C0F3810002287B
:101770000AD1D9F80000400206D52868800337D581
:1017800060680028E1D033E06068B0F5803F10D099
:10179000B0F5A02F286810D020F480302860286889
:1017A00020F4802028606068A8B1FFF7BBFB0646E4
:1017B0000DE0286840F48030F4E740F48020286091
:1017C000F7E700BFFFF7AEFB801B642873D82868DB
:1017D0008003F7D50CE0FFF7A5FB064605E000BF48
:1017E000FFF7A0FB801B6428F0D828688003F7D49B
:1017F0002078DFF8AC8280074FF0000A3ED5A7487A
:10180000001D016811F00C0F08D00068C0F38100C2
:1018100002280BD1D9F80000400207D428688007BD
:1018200016D5E068012800D112E033E1E068B8B1D4
:101830000120C8F80000FFF775FB064605E000BF71
:10184000FFF770FB801B0228C0D828688007F7D5F7
:101850002868216920F0F80040EAC10028600DE006
:10186000C8F800A0FFF75EFB064604E0FFF75AFB4E
:10187000801B02281FD828688007F7D4207800072B
:1018800022D5864F87486169703771B101210160A7
:10189000FFF748FB064604E0FFF744FB801B0228E5
:1018A00009D838688007F7D50EE0C0F800A0FFF728
:1018B00039FB064605E082E0FFF734FB801B022877
:1018C0007DD838688007F7D42078400768D5DFF8DE
:1018D000CCB100270BF13C0BDBF80000C0000BD4AF
:1018E000DBF8001041F08051CBF80010DBF800006D
:1018F000012700F0805000906B4E3068C00510D476
:10190000306840F480703060FFF70CFB009005E019
:10191000FFF708FB0099401A022850D83068C0052C
:10192000F6D55E4EA0686C3601280FD005283068C9
:1019300010D020F001003060306820F004003060EA
:10194000A068B8B1FFF7EEFA00900FE0306840F001
:101950000100F4E740F004003060F7E7FFF7E2FA37
:101960000099411A41F28830814266D83068800778
:10197000F4D50EE0FFF7D6FA009007E0FFF7D2FAB1
:101980000099411A41F28830814256D83068800768
:10199000F4D42FB1DBF8001021F08051CBF8001007
:1019A000A069C8B33D49091D0968C1F38101022935
:1019B0004AD00228504607D0C8F8600000E03CE05A
:1019C000FFF7B0FA04463BE04746C8F86000FFF76F
:1019D000A9FA064605E000BFFFF7A4FA801B02281B
:1019E0002BD828688001F7D4D4E907010843A16AFD
:1019F0002E4A490802EB0141626A41EA821108431A
:101A000094F82C1040EA0161C9F8001001203866F2
:101A1000FFF788FA044606E03EE000BFFFF782FACF
:101A2000001B022809D828688001F7D534E000BFE0
:101A3000FFF778FA001B022802D90320BDE8F88FCF
:101A400028688001F4D427E00128F7D0D9F80000F5
:101A5000E26900F4800191421CD1226A00F03F014A
:101A6000914217D147F6C071626A0140B1EB821F03
:101A700010D1A26A4FF0FF3300F4403103EB520261
:101A8000B1EB024F06D194F82C1000F07060B0EB6F
:101A9000016F01D00120D1E70020CFE704380240D8
:101AA00000004742800E4742007000400000FFFFE8
:101AB00010B5401EB0F1807F01D3012010BD4FF062
:101AC000E02460610F21601701F0FAF80020A061A6
:101AD00007202061002010BD70B590F83C20012A3D
:101AE00032D0012480F83C40022280F83D20036877
:101AF0005A689D6822F070060A6832435A60134B98
:101B000002689A4214D0B2F1804F11D0104B9A4221
:101B10000ED0104B9A420BD00F4B9A4208D00F4B6D
:101B20009A4205D00E4B9A4202D00E4B9A4204D1F3
:101B3000496825F080031943916080F83D400021F9
:101B400080F83C10084670BD022070BD00000140C6
:101B50000004004000080040000C00400004014068
:101B6000004001400018004010B5040003D094F874
:101B70003D0010B107E0012010BD002084F83C00BA
:101B8000204600F01FF8022084F83D00211D206847
:101B900000F09EFE012084F8460084F83E0084F8A0
:101BA0003F0084F8400084F8410084F8420084F843
:101BB000430084F8440084F8450084F83D00002088
:101BC00010BD000008B50068B0F1804F08D105488D
:101BD000016841F001010160006800F0010000901F
:101BE00008BD00004038024090F83D10012901D0A6
:101BF00001207047022180F83D1000681149884299
:101C000014D0B0F1804F11D00F4988420ED00F4947
:101C100088420BD00E49884208D00E49884205D030
:101C20000D49884202D00D49884204D1816801F0F3
:101C30000701062903D0016841F00101016000207D
:101C40007047000000000140000400400008004010
:101C5000000C00400004014000400140001800401A
:101C600070B5044690F83C000025012817D00126E5
:101C700084F83C60022084F83D002068826822F0ED
:101C8000770222F47F4282600868502838D00DDC49
:101C900020284FD005DC90B3102811D14AE0022053
:101CA00070BD302846D040280AD13BE060282FD0B4
:101CB00070280DD0B0F5805F03D0B0F5005F12D072
:101CC000012584F83D60002084F83C00284670BD62
:101CD000CB68D1E90121206800F066FE20688168A8
:101CE00041F0770109E0CB68D1E90121206800F0DB
:101CF0005BFE2068816841F480418160E1E719E082
:101D0000CA684968206800F061FE5021206806E03A
:101D1000CA684968206800F06AFE6021206800F007
:101D20004DFECEE7CA684968206800F04FFE4021AA
:101D30002068F4E7226801461046F0E770477047D4
:101D4000F8B5016804460868CA684B6910F00F0FBF
:101D50004FF0000559D003F0010602F490773743A5
:101D600065D0C10705D0D10503D5616C41F00101F3
:101D70006164410705D5D90703D0616C41F00201C8
:101D80006164810705D5D90703D0616C41F0040176
:101D90006164010707D502F02001314303D0616C73
:101DA00041F008016164616C00293AD0800604D5D5
:101DB000900602D5204600F062FE20684069616C02
:101DC000C0F38010090700D460B3204600F030FE55
:101DD00020684069400621D52068143050E8001F73
:101DE00021F0400140E80012002AF5D1E06BA8B1D3
:101DF0006E490165E06BFEF706FE002811D0E06B2E
:101E0000016D01B0BDE8F040084783060FD5930689
:101E10000DD52046BDE8F84000F031BE2046FFF762
:101E20008EFFF8BD2046FFF78AFF6564F8BD266B7C
:101E30002023012E7DD1C6067BD5D60679D508682C
:101E40004868009048694FF00206400641D5E16BB2
:101E5000086840680004000CE8D0A28D8242E5D9F1
:101E6000E085C869B0F5807F2DD020680C3050E83F
:101E7000001F21F4807140E80012002AF5D120688B
:101E8000143050E8001F21F0010140E80012002A40
:101E9000F5D12068143050E8001F21F0400140E8DF
:101EA0000012002AF5D184F84230256320680C30F6
:101EB00050E8001F21F0100140E80012002AF5D17F
:101EC000E06BFEF757FD6663A08DE18D401A81B28D
:101ED0002AE0A08DE18D401A81B2E08D0028A5D0C6
:101EE0000029A3D022680C3252E8000F20F4907031
:101EF00042E80007002FF5D12068143050E8002F89
:101F000022F0010240E80027002FF5D184F842308A
:101F1000256320680C3050E8002F22F0100240E8C2
:101F20000023002BF5D166632046FFF707FFF8BDBD
:101F3000FFE705062BD5150629D594F84100212881
:101F4000F5D1A068B0F5805F01D12069B0B1206AF9
:101F5000411C2162216800784860E08C401E00042A
:101F6000000CE084E3D12068C16821F08001C160E9
:101F70002068C16841F04001C160D8E7206A00884C
:101F8000C0F308004860206A801C2062E5E7400634
:101F9000CDD55006CBD5CA68204622F04002CA6093
:101FA00084F8413000F0C3F8C1E70000212A00089E
:101FB00070B5040004D094F84100002510B106E08B
:101FC000012070BD84F84050204600F023F8242002
:101FD00084F841002068C16821F40051C1602046A6
:101FE00000F0AEFD2068016921F490410161206894
:101FF000416921F02A0141612068C16841F4005122
:10200000C1606564202084F8410084F84200656363
:10201000002070BD10B586B0044614216846FEF756
:10202000F4F917492068884227D116480021026830
:1020300042F400220260006800F40020059011487C
:102040001038026842F0010202600068022200F0CB
:10205000010005900320CDE90210CDE9000208201F
:10206000049069460848FEF765FE002211463420B8
:10207000FFF74CFA3420FFF73BFA06B010BD000022
:10208000004C0040403802400000024070472DE9FB
:10209000F843044690F84100984616460D4620281D
:1020A00002D00220BDE8F88385B17EB100206064D3
:1020B000212084F84100FEF735FFA6848146E6849E
:1020C000A0682027B0F5805F02D003E00120E9E797
:1020D000206910B12E4600250EE000260CE080217C
:1020E000204600F0B3FDA8B9C6B116F8010B21686F
:1020F0004860E08C401EE084E08C4B464FF00002CC
:10210000CDF800800028EAD14FF04001204600F0D1
:102110009DFD40B184F841700320C3E735F8020B00
:10212000C0F30800E3E784F841700020BAE7704785
:10213000FEE701684A69D24352050FD46FF480620A
:102140004A61002140F8301F2022427381730269E6
:1021500042F00402026101730120704700207047C1
:102160002DE9F84F0446C06A1E4693460D46216885
:102170000A6842F480620A60082807D0012805D066
:1021800010F5803F02D0206B112804D1206801682F
:1021900041F4807101604FF001195B46002249460D
:1021A0002046009600F0CCF84FF4007840B120684B
:1021B0000068C00501D5C4F840800320BDE8F88F51
:1021C0002069DFF884A0B0F5804F0FD00620216889
:1021D00000EAD51747F0F000086133465A460AF185
:1021E0000601204600F0F4F858BB03E0E8B240F0E6
:1021F00001001CE02168E8B2086133465A465146A6
:10220000204600F0E5F8E0B9206841698169009155
:10221000016841F4807101605B4600224946204616
:10222000009600F08DF80028C1D147F0F100216838
:10223000086133465A465146204600F0C9F8002846
:10224000BCD00120BAE7000002000100F8B5044646
:10225000C06A1E460D461746082807D0012805D03B
:1022600010F5803F02D0206B122804D1206801684D
:1022700041F480710160134600224FF001112046A5
:10228000009600F05DF840B120680068C00502D5F6
:102290004FF4007020640320F8BD2069B0F5804F32
:1022A0000ED00620216800EAD51040F0F000086149
:1022B00033463A460B49204600F08AF878B902E0E6
:1022C00005F0FE0000E0E8B22168086105493346E8
:1022D0003A46891F204600F07BF80028DCD0012018
:1022E000F8BD00000800010070B516460D46044612
:1022F0001EE02046FFF71DFF08B1012070BD681CDD
:1023000016D0FEF70FFE801BA84200D885B92068C2
:102310004069C04340070BD5002044F8300F20210E
:102320006173A073216941F0200121612073E4E70A
:1023300020684069C0434007DBD4002070BD000026
:102340002DE9F047984617460D460446C1F3074667
:10235000DDF820902AE000BFB8F1FF3F26D0FEF75D
:10236000E1FDA0EB0901414502D8B8F1000F1DD1F4
:102370002068012E16D0806925EA00000004000CB8
:1023800012D00020B84211D1002044F8300F202193
:102390006173A073216941F0200121612073012044
:1023A000BDE8F0874069E7E70120EBE72068012EF0
:1023B0000AD0806925EA00000004000C06D0002045
:1023C000B842C9D00020EBE74069F3E70120F7E706
:1023D0002DE9F047984616460D4604464FF0000991
:1023E0004FF0200AC1F3074723E020684069C0434B
:1023F000400515D42068016841F40071016021682E
:102400006FF480604861C4F8309084F83DA084F88F
:102410003E90216C41F00401216484F83C9021E05D
:10242000701C06D0FEF77EFDA0EB0800B04203D87A
:1024300016B1012F1FD021E02068012F15D080692F
:1024400025EA00000004000C18D000BF44F8309FBB
:1024500084F80DA084F80E90216941F020012161DB
:1024600084F80C900120BDE8F087406925EA00005F
:102470000004000CEAD12068406901E0206880690E
:1024800025EA00000004000CAFD1ECE72DE9F04193
:10249000002590460E460446202728E04069C043A8
:1024A000C0060CD454F8301B6FF01000486144F89B
:1024B00010596777A577206A2062257714E0FEF728
:1024C00031FDA0EB0800B04200D886B92068406911
:1024D000C04340060BD544F8305F6773A57320698D
:1024E00040F02000206125730120BDE8F0812068C4
:1024F0004169C9434906D1D40020F6E770B51646B4
:102500000D4604461EE02046FFF713FE08B10120E9
:1025100070BD681C16D0FEF705FD801BA84200D8D0
:1025200085B920684069C04300060BD5002044F8F7
:10253000300F20216173A073216941F020012161D6
:102540002073E4E720684069C0430006DBD4002024
:1025500070BD00001CB500200D49009001900B4893
:1025600008600846FEF732F908B1FEF700F92420AA
:10257000009002200190002269460548FEF7FCF811
:10258000002801D0FEF7F3F81CBD000000740040E5
:1025900024010020094808B5016841F400110160D8
:1025A0000068002200F40010009011461020FEF791
:1025B000ADFFBDE808401020FEF79ABF303802405A
:1025C0000D4808B5016841F080010160016801F023
:1025D00080010091016841F001010160016801F092
:1025E00001010091016841F002010160006800F002
:1025F0000200009008BD0000303802400D4810B5C0
:102600000B4901600C49416000214FF48042816018
:10261000C0E9031241618161C1610162FEF788FC7A
:10262000002803D0BDE81040FEF7A1B810BD00009F
:102630000054004098010020A086010010B586B02B
:1026400000241648009401940294039404944FF0DB
:1026500080410594C0E900144721C0E9024180216E
:1026600004618161FFF780FA08B1FEF780F84FF44A
:102670008050009069460948FFF7F2FA08B1FEF76A
:1026800076F82020CDE9040404A90448FFF724FAD1
:10269000002801D0FEF76BF806B010BDEC01002059
:1026A0000C4810B50A4901604FF4E1314160002146
:1026B00081600C22C160C0E904128161C161FFF731
:1026C00077FC002803D0BDE81040FEF750B810BDDD
:1026D000004C004034020020FEE7FEE77047000097
:1026E00008B5642200920B46024658210148FEF7C5
:1026F000E3FC08BD9801002008B5642200920B4657
:10270000024658210148FEF7CFFD08BD9801002080
:1027100038B517A004880020C4F3072100F05EF844
:102720001420FEF7F5FAE1B2002000F057F89FED13
:10273000110A00F039F8A921022000F04FF83221E7
:10274000042000F04BF83221102000F047F800215F
:10275000122000F043F86946002000F019F89DF8B7
:10276000000040F02001002000F038F838BD0000E3
:10277000008000000000AF4210B504460121002097
:10278000FFF7BAFF2046BDE810401321FFF7A8BFAE
:1027900013B50C4601216846FFF7AEFF0121204624
:1027A000FFF79EFF1CBD0000DFED0B0A08B530EE01
:1027B000600A0222BCEEC00A10EE100A00EB800094
:1027C0008000C0F301218DF800108DF801006946EA
:1027D000002000F00DF808BD0000984208B58DF803
:1027E00000008DF8011002216846FFF785FF08BD43
:1027F0002DE9F041074614460E46501CFDF738FD02
:1028000005460770002004E0315C2A18401C517016
:10281000C0B2A042F8D3641CE1B22846FFF76CFFB7
:102820002846BDE8F041FDF752BD7047FEF706BEF1
:1028300030B593B030216846FDF7E7FD14210CA8B0
:10284000FDF7E3FD1C480025016841F0805101605F
:10285000006800F0805011901848016841F48041F0
:1028600001600068022400F4804011900120009073
:10287000000401908001CDE9064008AA0420482107
:1028800082E813000B906846FEF75CFF08B172B651
:10289000FEE70CA90F2081E831004FF480500F9023
:1028A000109002210CA8FEF763FE002801D072B63A
:1028B000FEE713B030BD0000403802400070004019
:1028C0000248016841F470010160704788ED00E042
:1028D000F0B50268294C2A4D2A4E2B4F2B4B4FF056
:1028E000804CA04209D0604507D0A84205D0B04234
:1028F00003D0B84201D0984204D122F0700E4A6849
:1029000042EA0E02A0421BD0604519D0A84217D05F
:10291000B04215D0B84213D0984211D01C4DA842F5
:102920000ED01C4DA8420BD01B4DA84208D01B4D09
:10293000A84205D01A4DA84202D01A4DA84203D190
:1029400022F44075CA682A434D6922F080022A4366
:1029500002608A68C2620A688262A04201D098421C
:1029600001D109690163012141610169C90703D0EE
:10297000016921F001010161F0BD0000000001408A
:102980000004004000080040000C0040000401402A
:102990000040014000440140004801400018004050
:1029A000001C00400020004010B5846842EA032269
:1029B00024F47F440A432243826010BD826822F0DF
:1029C00070020A4342F007018160704710B5036A44
:1029D000046A24F001040462846924F0F00444EAE7
:1029E000021423F00A020A438461026210BD10B58A
:1029F000036A046A24F010040462846923F0A003CB
:102A000024F4704444EA023243EA01118261016213
:102A100010BD00000148FFF793B900003402002008
:102A200010B5806B0021C185C184FFF788F910BD06
:102A300001680C3151E8002F22F4907241E8002324
:102A4000002BF5D10168143151E8002F22F001026A
:102A500041E80023002BF5D1016B012909D1016860
:102A60000C3151E8002F22F0100241E80023002B26
:102A7000F5D1202180F8421000210163704708B58C
:102A800090F84210222901D0022008BD82684FF43C
:102A900080539A4201D1016921B1816A9A421BD0C7
:102AA0004AB10AE00268816A5268C2F308020A80E9
:102AB000816A891C08E0026972B10268526802F0FA
:102AC0007F020A70816A491C8162C18D491E090416
:102AD000090CC18503D01BE002685268F1E7016868
:102AE000CA6822F02002CA600168CA6822F48072B3
:102AF000CA6001684A6922F001024A61202180F817
:102B0000421000214163026B012A03D0FFF7BEFA95
:102B1000002008BD016301680C3151E8002F22F04C
:102B2000100241E80023002BF5D101680A68D206A3
:102B300002D50A6849680091818DFFF7FFF8E7E741
:102B400070B5044600680169E26821F44051114300
:102B500001612169A068E269084361691143084382
:102B60002168CA6849F20C639A430243CA6020682C
:102B70004169A26921F440711143416131492068E2
:102B8000884202D03049884202D1FEF79BFD01E025
:102B9000FEF788FDE2690023192164253226B2F58B
:102BA000004F626828D0A0FB0101930F9200FDF74F
:102BB000B5FB0146B0FBF5F06FF01802504301EB96
:102BC000800006EB0010B0FBF5F000F0F002B1FB66
:102BD000F5F002EB0012B1FBF5F06FF0180358436B
:102BE00001EB800006EB0010B0FBF5F000F00F00E9
:102BF00021681044886070BDA0FB010192185B4100
:102C0000FDF78CFB0146B0FBF5F00201B1FBF5F0DE
:102C10006FF01803584301EB800006EBC000B0FBD7
:102C2000F5F000F0F80002EB4002B1FBF5F058437C
:102C300001EB800006EBC000B0FBF5F000F00700F0
:102C4000D6E7000000100140001401402DE9F843D0
:102C5000984617460D460446089E24E0701C22D074
:102C6000FEF760F9A0EB0800B0421AD8CEB1206898
:102C7000C168490717D5802D15D0402D13D00168A4
:102C8000C94309070FD40168002540680090204619
:102C9000FFF7CEFE0820606484F840500120BDE8B4
:102CA000F8830320FBE72068006835EA000004D0C1
:102CB0000020B842D2D00020F1E70120F9E7FEE77A
:102CC0000907090E002804DB00F1E02080F8001459
:102CD000704700F00F0000F1E02080F8141D7047ED
:102CE00008B5FEF7B3FBFFF7A3FDFFF769FCFFF79D
:102CF00051FCFFF783FCFFF7A1FCFFF72BFCFFF76C
:102D0000CFFC1148FEF770FF0020014600908023A1
:102D10000E4A0F48FDF7BEFD0E48FFF72DFD4FF49C
:102D20007A74234613220B490B48FFF7B0F9FFF7DB
:102D3000EFFC0848FFF720FD23461322054906480B
:102D4000FFF7A5F9FEE70000EC01002000000020DD
:102D50002401002010010020340200204FF04070B8
:102D6000E1EE100A7047000610160006101600006B
:102D7000000000000000010203040607080900002B
:102D80000000010203040000A82D0008000000203C
:102D900010010000C4010008B82E00081001002036
:102DA000D0070000E001000800086408C8082C09EA
:102DB0008F09F109520AB10A0F0B6B0BC40B1C0CE3
:102DC000710CC30C120D5E0DA70DEC0D2E0E6C0ECA
:102DD000A60EDB0E0D0F3A0F630F870FA60FC10F64
:102DE000D70FE80FF50FFC0FFF0FFC0FF50FE80FE3
:102DF000D70FC10FA60F870F630F3A0F0D0FDB0E12
:102E0000A60E6C0E2E0EEC0DA70D5E0D120DC30C52
:102E1000710C1C0CC40B6B0B0F0BB10A520AF1099D
:102E20008F092C09C808640800089B073707D306D8
:102E300070060E06AD054E05F00494043B04E30352
:102E40008E033C03ED02A10258021302D10193014B
:102E500059012401F200C5009C00780059003E0091
:102E6000280017000A000300010003000A001700F1
:102E700028003E00590078009C00C500F2002401A3
:102E800059019301D10113025802A102ED023C0342
:102E90008E03E3033B049404F0044E05AD050E06D7
:102EA0007006D30637079B070100000010000000E2
:082EB000000000000024F40002
:040000050800018965
:00000001FF
