:020000040800F2
:1000000080070020290200087F190008B1130008AA
:100010007D19000885040008E91A000800000000A6
:10002000000000000000000000000000831900082C
:1000300095040008000000008119000885190008D7
:10004000430200084302000843020008430200087C
:10005000430200084302000843020008430200086C
:10006000430200084302000843020008430200085C
:10007000430200084302000843020008430200084C
:1000800089040008430200084302000843020008F4
:10009000430200084302000843020008430200082C
:1000A000430200084302000843020008430200081C
:1000B000430200084302000843020008430200080C
:1000C000B513000843020008430200084302000879
:1000D00043020008430200084302000843020008EC
:1000E00043020008430200084302000843020008DC
:1000F00043020008430200084302000843020008CC
:1001000043020008430200084302000843020008BB
:1001100043020008430200084302000843020008AB
:10012000430200084302000843020008430200089B
:10013000430200084302000843020008430200088B
:10014000430200084302000843020008430200087B
:10015000430200084302000843020008430200086B
:10016000430200084302000843020008430200085B
:100170004302000843020008430200080000000098
:10018000430200084302000800F002F800F03CF8C7
:100190000AA090E8000C82448344AAF10107DA45E2
:1001A00001D100F031F8AFF2090EBAE80F0013F0F8
:1001B000010F18BFFB1A43F001031847A4190000F0
:1001C000C4190000103A24BF78C878C1FAD8520781
:1001D00024BF30C830C144BF04680C6070470000C1
:1001E0000023002400250026103A28BF78C1FBD840
:1001F000520728BF30C148BF0B6070471FB501F0E0
:100200009DFC1FBD10B510BD00F007F91146FFF7AA
:10021000F5FF01F07BFC00F025F903B4FFF7F2FFD6
:1002200003BC00F029F9000009488047094800474D
:10023000FEE7FEE7FEE7FEE7FEE7FEE7FEE7FEE796
:10024000FEE7FEE704480549054A064B70470000F3
:10025000191A000889010008800100208007002089
:10026000800300208003002053EA020C00F0698024
:100270002DE9F04B4FF00006002B1FBFB3FA83F5BA
:1002800003FA05F424FA05F65E4012BF1643B2FAEB
:1002900082F502FA05F4C5F120051EBF22FA05FC1D
:1002A00044EA0C04203556EA044C4FEA144418BFC3
:1002B000641C4FF000084FF00009904271EB030CF2
:1002C00039D3002919BFB1FA81F701FA07F6B0FA5C
:1002D00080F700FA07F6C7F120071EBF20FA07FCD7
:1002E00046EA0C062037B6FBF4FCA7EB0507103FE7
:1002F00007F01F0BCBF120060CFA0BFB2CFA06F6CD
:1003000044BFB3460026202FA4BF5E464FF0000B2B
:100310005BEA060C08BF4FF0010B19EB0B09ABFBB6
:10032000027C48EB0608C01B06FB02CC0BFB03CC8F
:1003300071EB0C01C1E70B46024641464846BDE859
:10034000F08B13B54FF000004FF00001AFF30080C9
:10035000BDE81C40704710B5203AC0F00B80B1E8F2
:100360001850203AA0E81850B1E81850A0E81850EA
:10037000BFF4F5AF5FEA027C24BFB1E81850A0E8F3
:10038000185044BF18C918C0BDE810405FEA827C0D
:1003900024BF51F8043B40F8043B08BF7047D20724
:1003A00028BF31F8023B48BF11F8012B28BF20F8C5
:1003B000023B48BF00F8012B70474FF0000200B528
:1003C000134694469646203922BFA0E80C50A0E878
:1003D0000C50B1F12001BFF4F7AF090728BFA0E826
:1003E0000C5048BF0CC05DF804EB890028BF40F8F2
:1003F000042B08BF704748BF20F8022B11F0804F34
:1004000018BF00F8012B7047704770477047000015
:10041000004870472001002070477546FFF7F8FF3D
:10042000AE4605006946534620F00700854618B0E1
:1004300020B5FFF707FFBDE820404FF000064FF062
:1004400000074FF000084FF0000B21F00701AC4609
:10045000ACE8C009ACE8C009ACE8C009ACE8C00928
:100460008D46704710B50446AFF300802046BDE8C6
:100470001040FFF7D2BE000001491820ABBEFEE7D6
:1004800026000200FEE70000014800F019B8000055
:1004900024000020704772B6FEE790F8351002295C
:1004A00003D08021416501207047052180F8351077
:1004B0000068016821F00101016000207047000020
:1004C0002DE9F84304464FF00009CDF80090634849
:1004D0004FF41651A56D0068B0FBF1F72E6894F843
:1004E0005C10082000FA01F131420FD021680A683F
:1004F00052070BD50A6822F004020A6094F85C10D7
:100500008840A860606D40F00100606594F85C1060
:100510004FF0010808FA01F0304208D0216849691B
:10052000090604D5A860606D40F00200606594F88B
:100530005C1004208840304208D02168096889078F
:1005400004D5A860606D40F00400606594F85C100C
:1005500010208840304218D021680968090714D556
:10056000A86020680168490304D50068000308D525
:10057000A16C07E00168C90503D4016821F00801F6
:100580000160216C09B12046884794F85C10202056
:100590008840304231D021680968C9062DD5A8604D
:1005A00094F8350005282068016806D0490347D52E
:1005B000006800031DD4616C1CE021F0160101608D
:1005C0002068416921F080014161206C08B9A06C6C
:1005D00020B12068016821F00801016094F85C10E6
:1005E0003F208840A86084F8358084F83490216DDD
:1005F0001FE0E16B09B120468847606D00282BD0D1
:10060000606DC00714D0052084F8350020680168AB
:1006100021F0010101600098401C0090B84203D80D
:1006200020680068C007F6D184F8358084F83490DB
:10063000E16C002910D001B02046BDE8F043084726
:100640000168C905D5D4016821F01001016084F862
:10065000358084F83490CCE7BDE8F8830C000020A6
:100660002DE9F84FDFF8BCA10022012503264FF049
:100670000F090AF1040BAAF1040E00BF0B6805FA7A
:1006800002F42340A34270D10F7907F00307012F32
:1006900001D0022F16D187684FEA420806FA08FCFB
:1006A00027EA0C07D1F80CC00CFA08FC4CEA070C3E
:1006B000C0F808C04768A7430C79C4F300149440FD
:1006C0003C4344600C79E443A4070AD0C4684FEA71
:1006D000420C06FA0CF7BC438F6807FA0CF7274365
:1006E000C7600C7904F00304022C12D1D40800EB8B
:1006F000840CDCF820405707FF0E09FA07F824EABB
:100700000804D1F8108008FA07F848EA0408CCF881
:10071000208004684FEA420C06FA0CF7BC430F79BC
:1007200007F0030707FA0CF7274307604C6814F437
:10073000403F70D03C4C276847F4804727602468CE
:1007400022F0030704F480440094384C07EB040CB7
:10075000DCF8084897074FEA177809FA08F7BC430E
:10076000334FB84202D1002724E054E0314FB84261
:1007700001D101271EE0304FB84201D1022719E014
:100780002E4FB84201D1032714E02D4FB84201D1BA
:1007900004270FE02B4FB84201D105270AE02A4F6A
:1007A000B84201D1062705E0284FB84201D10727FA
:1007B00000E0082707FA08F72743CCF80878DAF8AA
:1007C00000405746D1F804C09C435FEACC2C00D5CA
:1007D0001C433C60DBF800405F46D1F804C09C43FA
:1007E0005FEA8C2C00D51C433C60DEF80040774665
:1007F000D1F804C09C435FEA8C3C00D51C433C60AC
:10080000084F083F3C68D1F804C09C435FEACC3CE9
:1008100000D51C433C60521C102AFFF42FAFBDE8EA
:10082000F88F0000083C014044380240003001408D
:10083000000002400004024000080240000C024098
:10084000001002400014024000180240001C024048
:1008500001488068704700000000002070472DE9C3
:10086000F041016804464A694E6890F83E00002550
:10087000D743FA0506D4F243D20503D46FF480724D
:1008800001254A61B90508D4F143C90505D4226898
:100890006FF4007145F002055161790525D4F143EB
:1008A000C90522D4638D94F83D10226B202808D10D
:1008B0003BB9212910D029290ED0282901D1212A7C
:1008C0000AD022686FF48061516145F00405102858
:1008D00006D0402804D008E0204600F0E9FE04E0FD
:1008E0002068016841F400710160380508D4F043C4
:1008F000C00505D421686FF4006045F00805486123
:10090000002D07D0206C284320642046BDE8F0412C
:1009100000F0BCBDBDE8F08100B50068084987B0B3
:1009200088420AD1182207A16846FFF714FD642304
:1009300014226946094800F0EBFC07B000BD000036
:1009400000540040493243204572726F72206F6339
:10095000637572726564210A00000000D8000020EF
:1009600070B5040025D094F83D00002520B984F826
:100970003C50204600F050F9242084F83D002068C7
:10098000016821F0010101602068016841F4004123
:1009900001602068016821F40041016000F0AEFAB6
:1009A0004D4A6168914201D84C4900E04C49884267
:1009B00001D2012070BD4B492368B0FBF1F15E68A4
:1009C00026F03F060E435E606368934206D94FF4FB
:1009D000967359434FF47A73B1FBF3F12368491CC2
:1009E0001E6A26F03F06314319626168914210D8B1
:1009F0004900401EB0FBF1F2521CC2F30B02042A64
:100A000001D2042022E0B0FBF1F0401CC0F30B0047
:100A10001CE0A268F2B301EBC10303EB0116431E15
:100A2000B3FBF6F35B1C43F480431B0549D092B340
:100A300001EBC10202EB0111401EB0FBF1F0401CC2
:100A4000C0F30B0040F4804040F400402168CA69C4
:100A50004CF6FF739A431043C861D4E90710014371
:100A60002068026822F0C00211430160D4E903014A
:100A700001432068826848F2FF339A431143816042
:100A8000D4E9050108432168CA6822F0FF02104337
:100A9000C86001E00EE016E02068016841F0010145
:100AA00001602564202084F83D00256384F83E50D1
:100AB000002070BD01EB4106431EB3FBF6F35B1C47
:100AC000B3E70120C2E701EB4101401EB0FBF1F0AA
:100AD000401CC0F30B00B7E7A086010080841E0015
:100AE00000093D0040420F00704700002DE9F84F1B
:100AF0001F4690468A460446DDF82890FFF7A8FE78
:100B0000054694F83D0020287FD119230122404951
:100B10002046009500F040FE002876D194F83C0075
:100B2000012872D0012084F83C0020680168C907C0
:100B300003D1016841F0010101602068016821F4DE
:100B400000610160212084F83D00102084F83E00FF
:100B500000262664C4F824806785608D20852D4892
:100B6000E0622B464A465146204600F053FD90B9BC
:100B7000206841698069009036E02A46494620464F
:100B800000F0B0FE50B1206C042804D12068016848
:100B900041F4007101600120BDE8F88F606A2168AE
:100BA00000780861606A401C6062618D491E618541
:100BB000218D491E89B2218522685369DB435B0779
:100BC0000BD451B100781061606A401C6062608D86
:100BD000401E6085208D401E20852A4649462046BD
:100BE00000F0AEFD0028CED1208D0028C5D154F8EC
:100BF0003D0B016841F400710160202004F81E09DA
:100C0000E67766770020C7E7FFE70220C4E7000029
:100C1000020010000000FFFF10B586B0044614214A
:100C20006846FFF7CAFB17492068884228D1164852
:100C3000016841F0020101600068694600F00200AD
:100C40000590C02000901220019001200290032006
:100C50000390042004900D48FFF702FD0A4810306D
:100C6000016841F4001101600068002200F40010E6
:100C700005901146202000F075F8202000F064F85F
:100C800006B010BD0054004030380240000402405D
:100C90007047000002488168027811448160704703
:100CA000000000200B4810B5016841F4007101609C
:100CB000016841F480610160016841F48071016064
:100CC000032000F06FF80F2000F006F800F024F881
:100CD000002010BD003C024070B50D4D04464FF49D
:100CE0007A712878B1FBF0F00A490968B1FBF0F09D
:100CF00000F0FAFA48B9102C07D200222146501E03
:100D000000F030F800206C6070BD012070BD000064
:100D1000000000200C0000200A4808B5016841F4DA
:100D200080410160006800F4804000900548001F89
:100D3000016841F080510160006800F0805000902F
:100D400008BD000044380240002809DB00F01F0203
:100D5000012191404009800000F1E020C0F800111D
:100D600070470000F0B40E4B1B680C46C3F302231F
:100D7000C3F10705042D00D90425191D072901D247
:100D8000002300E0DB1E012606FA05F1491E214082
:100D900099409E40761E16403143F0BC00F0A5BE3F
:100DA0000CED00E0064900F0070208684FF6FF036B
:100DB000184040EA0220034A1043086070470000D0
:100DC0000CED00E00000FA052DE9F0470E460500A5
:100DD00065D0DFF81481D8F80000F7B200F0070002
:100DE000B04207D288F80070D8F8000000F0070081
:100DF000B04254D128683D4C810712D5400703D535
:100E0000206840F4E05020602878000703D520686F
:100E100040F4604020602068A96820F0F00008439A
:100E200020602878C0072DD030496868083901282B
:100E300012D0022813D0032811D00968890700298D
:100E40002DDA216821F0030101432160FFF700FD45
:100E5000814641F2883A0EE009688903EFE70968A4
:100E60008901ECE7FFF7F4FCA0EB0901514502D939
:100E70000320BDE8F0872068696800F00C00B0EB43
:100E8000810FEFD1D8F80010404601F00701B142C0
:100E900007D90770006800F00700B04201D00120B8
:100EA000E7E72878400705D52068E96820F4E05096
:100EB000084320602878000706D52068296920F4B7
:100EC000604040EAC100206000F028F82168084A2C
:100ED000C1F30311515CC840064908600648006828
:100EE000FFF7FAFE0020C4E7003C02400838024049
:100EF000461B00080C00002004000020044805499F
:100F000000680968044AC1F38221515CC8407047F7
:100F10000C00002008380240561B0008154810B588
:100F2000006810F00C02144813D04110042A0FD0AE
:100F3000082A0ED10F4C241F2268236802F03F02BA
:100F40005B0207D52068C0F38810A0FB010106E012
:100F5000084610BD2168C1F38811A1FB00010023E0
:100F6000FFF782F92168C1F30141491C4900B0FB38
:100F7000F1F010BD083802400024F4002DE9F84FCC
:100F800004006ED02078DFF84C93C007A9F1040567
:100F90004AD009F104000168C1F38101012908D098
:100FA0000068C0F3810002280AD1D9F8000040028D
:100FB00006D52868800337D560680028E1D033E083
:100FC0006068B0F5803F10D0B0F5A02F286810D031
:100FD00020F480302860286820F480202860606831
:100FE000A8B1FFF735FC06460DE0286840F48030D4
:100FF000F4E740F480202860F7E700BFFFF728FC03
:10100000801B642873D828688003F7D50CE0FFF7AD
:101010001FFC064605E000BFFFF71AFC801B642892
:10102000F0D828688003F7D42078DFF8AC828007F6
:101030004FF0000A3ED5A748001D016811F00C0FC3
:1010400008D00068C0F3810002280BD1D9F8000055
:10105000400207D42868800716D5E068012800D12F
:1010600012E033E1E068B8B10120C8F80000FFF7F2
:10107000EFFB064605E000BFFFF7EAFB801B0228F6
:10108000C0D828688007F7D52868216920F0F800C3
:1010900040EAC10028600DE0C8F800A0FFF7D8FBC7
:1010A000064604E0FFF7D4FB801B02281FD82868FF
:1010B0008007F7D42078000722D5864F87486169DA
:1010C000703771B101210160FFF7C2FB064604E0F1
:1010D000FFF7BEFB801B022809D838688007F7D5C8
:1010E0000EE0C0F800A0FFF7B3FB064605E082E083
:1010F000FFF7AEFB801B02287DD838688007F7D445
:101100002078400768D5DFF8CCB100270BF13C0B05
:10111000DBF80000C0000BD4DBF8001041F0805178
:10112000CBF80010DBF80000012700F080500090A1
:101130006B4E3068C00510D4306840F48070306069
:10114000FFF786FB009005E0FFF782FB0099401A4D
:10115000022850D83068C005F6D55E4EA0686C36BF
:1011600001280FD00528306810D020F00100306031
:10117000306820F004003060A068B8B1FFF768FB69
:1011800000900FE0306840F00100F4E740F0040008
:101190003060F7E7FFF75CFB0099411A41F28830B5
:1011A000814266D830688007F4D50EE0FFF750FB27
:1011B000009007E0FFF74CFB0099411A41F288309C
:1011C000814256D830688007F4D42FB1DBF8001084
:1011D00021F08051CBF80010A069C8B33D49091D2A
:1011E0000968C1F3810102294AD00228504607D07C
:1011F000C8F8600000E03CE0FFF72AFB04463BE053
:101200004746C8F86000FFF723FB064605E000BF2D
:10121000FFF71EFB801B02282BD828688001F7D41B
:10122000D4E907010843A16A2E4A490802EB0141AB
:10123000626A41EA8211084394F82C1040EA016185
:10124000C9F8001001203866FFF702FB044606E0EB
:101250003EE000BFFFF7FCFA001B022809D828680F
:101260008001F7D534E000BFFFF7F2FA001B022837
:1012700002D90320BDE8F88F28688001F4D427E064
:101280000128F7D0D9F80000E26900F4800191420A
:101290001CD1226A00F03F01914217D147F6C0717C
:1012A000626A0140B1EB821F10D1A26A4FF0FF3396
:1012B00000F4403103EB5202B1EB024F06D194F837
:1012C0002C1000F07060B0EB016F01D00120D1E76D
:1012D0000020CFE70438024000004742800E47421A
:1012E000007000400000FFFF10B5401EB0F1807F8D
:1012F00001D3012010BD4FF0E02460610F21601781
:1013000000F0F3FB0020A06107202061002010BD49
:101310002DE9F843044690F84100984616460D46DC
:10132000202802D00220BDE8F88385B17EB10020DC
:101330006064212084F84100FFF78AFAA684814680
:10134000E684A0682027B0F5805F02D003E001208A
:10135000E9E7206910B12E4600250EE000260CE0DA
:101360008021204600F087FBA8B9C6B116F8010B12
:1013700021684860E08C401EE084E08C4B464FF0D2
:101380000002CDF800800028EAD14FF0400120464D
:1013900000F071FB40B184F841700320C3E735F8D9
:1013A000020BC0F30800E3E784F841700020BAE7BD
:1013B000FEE700000148FFF752BA00008400002059
:1013C00038B5806B002190F83D202B4B46F2A814D5
:1013D0001B68B3FBF4F3C3EBC30303EB830300937A
:1013E0003BB15B1E009303681B689B0505D5009B02
:1013F000F6E7036C43F020030364436B03B1D96346
:10140000836B03B1D96303681C6824F480641C6097
:101410004185436B03B11965836B03B1196503689B
:101420001C6824F001041C6090F83D402023602CCF
:101430000BD0282434EA02020FD080F83D3080F827
:101440003E1000BFFFF768FA38BD80F83D3080F8E5
:101450003E100164FFF702FA38BD0268136843F0DA
:10146000010313600268136843F48063136001632F
:1014700080F83D40E6E700000C000020006841696C
:10148000C943090601D400210161704770B50446C3
:1014900090F83D0094F83E10102901D0402906D163
:1014A000222804D121680A6822F400620A602821F7
:1014B00031EA00024FF000054FF0200626D02168E7
:1014C0004968090505D4602803D084F83D6084F894
:1014D0003E50256320684168090537D5416821F4ED
:1014E00000614160606B90F835203C49012A11D0C1
:1014F0000165606BFEF7D1FF38B32068016821F009
:101500000101016084F83D60606B1CE0256384F894
:101510003D10DFE7A06B0165A06BFEF7BEFFA0B139
:1015200020684169C943490605D40069616A0870A9
:10153000606A401C60622068016821F0010101605E
:1015400084F83D60A06B016D884710E094F83D1071
:10155000602910D04169C943490605D40069616A10
:101560000870606A401C60622046FFF7D5F9206C65
:10157000C1071CD115E084F83D6025644169C94369
:10158000490605D40069616A0870606A401C60629F
:101590002068016821F0010101602046FFF75EF933
:1015A000E5E7810703D4410701D4000704D520688B
:1015B000416821F4E061416094F83D00216C4907E5
:1015C0000BD5282809D10648E062256384F83D60E0
:1015D00084F83E502046FFF787FA70BDC11300081B
:1015E0000000FFFF01684A69D24352050FD46FF42F
:1015F00080624A61002140F8301F202242738173CB
:10160000026942F004020261017301207047002068
:1016100070470000F8B50446C06A1E460D461746DE
:10162000082807D0012805D010F5803F02D0206B94
:10163000122804D12068016841F4807101601346CA
:1016400000224FF001112046009600F0A5F840B1AD
:1016500020680068C00502D54FF4007020640320A4
:10166000F8BD2069B0F5804F0ED00620216800EA51
:10167000D51040F0F000086133463A460B49204649
:1016800000F0D2F878B902E005F0FE0000E0E8B220
:1016900021680861054933463A46891F204600F013
:1016A000C3F80028DCD00120F8BD000008000100CC
:1016B0002DE9F04190F83D300446C26A0021202611
:1016C0001E4F00686FF48065082A01D0202A01D1DE
:1016D000282B04D0212B17D04561BDE8F081E762AB
:1016E000426822F4E0624260206845612068026836
:1016F00022F480620260216384F83D6084F83E1029
:101700002046FFF7F1F9E8E7E7622122226384F837
:101710003D6084F83E10416821F4E061416020683A
:1017200045612068016821F4806101602046FFF76F
:10173000A5FE2046FFF7ACFACFE700000000FFFF50
:1017400070B516460D4604461EE02046FFF74AFFD8
:1017500008B1012070BD681C16D0FFF779F8801B16
:10176000A84200D885B920684069C04340070BD51E
:10177000002044F8300F20216173A073216941F0EB
:10178000200121612073E4E720684069C0434007DD
:10179000DBD4002070BD00002DE9F04798461746C5
:1017A0000D460446C1F30746DDF820902AE000BF4D
:1017B000B8F1FF3F26D0FFF74BF8A0EB09014145F8
:1017C00002D8B8F1000F1DD12068012E16D0806913
:1017D00025EA00000004000C12D00020B84211D10C
:1017E000002044F8300F20216173A073216941F07B
:1017F0002001216120730120BDE8F0874069E7E7FF
:101800000120EBE72068012E0AD0806925EA00005C
:101810000004000C06D00020B842C9D00020EBE73D
:101820004069F3E70120F7E72DE9F04798461646AF
:101830000D4604464FF000094FF0200AC1F3074758
:1018400023E020684069C043400515D42068016842
:1018500041F40071016021686FF480604861C4F850
:10186000309084F83DA084F83E90216C41F0040152
:10187000216484F83C9021E0701C06D0FEF7E8FF5C
:10188000A0EB0800B04203D816B1012F1FD021E011
:101890002068012F15D0806925EA00000004000CA3
:1018A00018D000BF44F8309F84F80DA084F80E9043
:1018B000216941F02001216184F80C900120BDE8EC
:1018C000F087406925EA00000004000CEAD1206896
:1018D000406901E02068806925EA00000004000CEE
:1018E000AFD1ECE770B516460D4604461EE0204623
:1018F000FFF778FE08B1012070BD681C16D0FEF716
:10190000A7FF801BA84200D885B920684069C04362
:1019100000060BD5002044F8300F20216173A0731E
:10192000216941F0200121612073E4E720684069CA
:10193000C0430006DBD4002070BD00000D4810B588
:101940000B4901600C4941600021B022C0E902123C
:101950004FF48042C0E904218161C1610162FEF758
:10196000FFFF002803D0BDE81040FEF794BD10BD76
:101970000054004084000020A0860100FEE7FEE73E
:1019800070477047FFF786B930B593B0302168468D
:10199000FEF713FD14210CA8FEF70FFD1C480025CF
:1019A000016841F080510160006800F080501190A2
:1019B0001848016841F4804101600068022400F485
:1019C0008040119001200090000401908001CDE939
:1019D000064008AA0420482182E813000B906846BC
:1019E000FFF7CCFA08B172B6FEE70CA90F2081E828
:1019F00031004FF480500F90109002210CA8FFF797
:101A0000E3F9002801D072B6FEE713B030BD000044
:101A100040380240007000400248016841F4700103
:101A20000160704788ED00E001680C3151E8002F3B
:101A300022F4907241E80023002BF5D101681431A3
:101A400051E8002F22F0010241E80023002BF5D1DC
:101A5000016B012909D101680C3151E8002F22F0F6
:101A6000100241E80023002BF5D1202180F842101C
:101A70000021016370472DE9F843984617460D464B
:101A80000446089E24E0701C22D0FEF7E1FEA0EB85
:101A90000800B0421AD8CEB12068C168490717D5EE
:101AA000802D15D0402D13D00168C94309070FD4EC
:101AB00001680025406800902046FFF7B5FF082028
:101AC000606484F840500120BDE8F8830320FBE700
:101AD0002068006835EA000004D00020B842D2D067
:101AE0000020F1E70120F9E7FEE70907090E0028C9
:101AF00004DB00F1E02080F80014704700F00F00D4
:101B000000F1E02080F8141D704700001CB5FFF7BD
:101B1000C9F8FFF739FFFFF711FF06A0012300689E
:101B200001906420009001AA58210348FEF7DEFFCF
:101B3000FEE70000AA000000840000204FF0407083
:101B4000E1EE100A704700000000000000000102F2
:101B50000304060708090000000001020304000056
:101B6000801B00080000002010000000C4010008D5
:101B7000901B00081000002070070000E001000822
:101B80000100000010000000000000000024F4002C
:040000050800018965
:00000001FF
