:020000040800F2
:10000000A80400209D010008E51E0008DB1A000876
:10001000E11E0008A90200081D26000800000000DB
:10002000000000000000000000000000EB1E0008BF
:10003000AD02000800000000E91E0008832000084F
:10004000B7010008B7010008B7010008B7010008B0
:10005000B7010008B7010008B7010008B7010008A0
:10006000B7010008B7010008B7010008B701000890
:10007000B7010008B7010008B7010008B701000880
:10008000B7010008B7010008B7010008B701000870
:10009000B7010008B7010008B7010008B701000860
:1000A000B7010008B7010008B7010008B701000850
:1000B000B7010008B7010008B7010008B701000840
:1000C000B7010008B7010008B7010008B701000830
:1000D000B70100080D260008B7010008B7010008A5
:1000E000B7010008B7010008B7010008B701000810
:1000F000B7010008B7010008B7010008B701000800
:10010000B7010008B7010008B7010008B7010008EF
:10011000B7010008B7010008B7010008B7010008DF
:10012000B7010008B7010008B7010008B7010008CF
:10013000B7010008B7010008B7010008B7010008BF
:10014000B7010008B7010008B7010008B7010008AF
:10015000B7010008B7010008B7010008B70100089F
:10016000B7010008B7010008B7010008B70100088F
:10017000B7010008B7010008B7010008000000003F
:10018000B7010008B7010008DFF80CD000F07AF8DA
:1001900000480047A9290008A80400200648804715
:1001A00006480047FEE7FEE7FEE7FEE7FEE7FEE75C
:1001B000FEE7FEE7FEE7FEE74521000889010008AB
:1001C0002DE9F05F0546002092469B46884606468C
:1001D000814640241BE0284641464746224600F01F
:1001E00041F853465A46C01A914110D31146184659
:1001F000224600F028F82D1A67EB01084F462246E8
:100200000120002100F01FF817EB00094E41201ECD
:10021000A4F10104DFDC484631462A464346BDE8E6
:10022000F09FD2B201E000F8012B491EFBD27047CB
:100230000022F6E710B513460A4604461946FFF7B2
:10024000F0FF204610BD202A04DB203A00FA02F11C
:10025000002070479140C2F1200320FA03F31943B4
:1002600090407047202A04DB203A21FA02F0002156
:10027000704721FA02F3D040C2F1200291400843B6
:1002800019467047064C074D06E0E06840F0010350
:1002900094E8070098471034AC42F6D3FFF778FF94
:1002A0008C2A0008AC2A000800BFFEE7704772B62F
:1002B00000BFFEE770B50446A56D00F081F9064663
:1002C00094F83500022808D08020606500BF002027
:1002D00084F8340000BF012070BD2068006820F061
:1002E0001600216808602068406920F080002168BD
:1002F0004861206C08B9A06C28B12068006820F023
:100300000800216808602068006820F0010021686A
:10031000086010E000F054F9801B05280BD920205C
:100320006065032084F8350000BF002084F83400A5
:1003300000BF0320D0E72068006800F0010000281B
:10034000E8D194F85C103F208840A860012084F830
:10035000350000BF002084F8340000BF00BFBBE7B9
:10036000014691F83500022803D08020486501201D
:100370007047052081F835000868006820F001000A
:100380000A6810600020F3E770B5044600F018F921
:1003900006462546681C10B104480078054400BF95
:1003A00000F00EF9801BA842FAD370BD0C000020AB
:1003B000F8B502460B460025002400200021D6E0B7
:1003C000012606FA01F51E6806EA0504AC4274D15E
:1003D0001E7906F00306012E04D01E7906F00306EE
:1003E000022E13D190684F000326BE40B0434F0049
:1003F000DE68BE4030439060506801268E40B043B6
:100400001E79C6F300168E40304350601E7906F008
:100410000306032E09D0D0684F000326BE40B04328
:100420004F009E68BE403043D0601E7906F0030640
:10043000022E13D1CF0802F1200656F827004E07EE
:10044000F70E0F26BE40B0434F07FF0E1E69BE4099
:100450003043CF0802F1200646F8270010684F000D
:100460000326BE40B0431E7906F003064F00BE408F
:10047000304310605E6806F44036002E76D000BF30
:10048000002600963C4E366846F480463A4F3E6061
:100490003E46366806F48046009600BF00BF374EE1
:1004A0008F0856F827008E07370F0F26BE40B0433F
:1004B000334EB24202D1002624E057E0314EB24220
:1004C00001D101261EE0304EB24201D1022619E0D0
:1004D0002E4EB24201D1032614E02D4EB24201D17C
:1004E00004260FE02B4EB24201D105260AE02A4E27
:1004F000B24201D1062605E0284EB24201D10726BC
:1005000000E008268F073F0FBE4030431B4E8F0888
:1005100046F82700224E3068A0435E6806F4801635
:1005200006B120431E4E3060361D3068A0435E6821
:1005300006F4001606B12043194E361D3060184EE1
:10054000361F3068A0435E6806F4003606B12043CB
:10055000134E361F3060361F3068A0435E6806F4C5
:10056000803606B120430E4E083E3060491C1029EB
:10057000FFF426AFF8BD00004438024008380140BF
:10058000000002400004024000080240000C02404B
:10059000001002400014024000180240001C0240FB
:1005A000083C0140024613690B400BB1012000E0FA
:1005B000002070470AB1816101E00B04836170473C
:1005C00001480068704700000400002010B586B0A4
:1005D00004462068806805908B492068884201D1D4
:1005E0008A4801E04FF0402080680490206840680D
:1005F000039085492068884201D1844801E04FF08A
:100600004020406802906068B0F5007F02D06068CA
:1006100000286FD1059800F00200022806D1039847
:1006200000F0800010B1204601F0ACFA049800F010
:10063000010030B1029800F0400010B1204601F0F6
:100640006BFA049800F04000402832D1029800F084
:10065000200070B36C492068884201D16B4801E0EA
:100660004FF04020406820F06000674A21689142C6
:1006700001D1664901E04FF04021486020684068A0
:1006800020F0A0002168486000BF00200190206891
:10069000C068019020688068019000BF00BF012001
:1006A00084F84100606C40F002006064204600F075
:1006B000B0F8059800F00800082831D1039800F040
:1006C000200000282CD02068406820F0A00021687D
:1006D00048604D492068884201D14C4801E04FF004
:1006E0004020406820F06000474A2168914202D1D2
:1006F000464902E015E04FF04021486000BF00206D
:10070000019020688068019000BF00BF012084F83C
:100710004100606C40F004006064204600F079F80D
:1007200070E0049800F00200022806D1029800F060
:10073000800010B1204601F041FA059800F0010058
:1007400030B1039800F0400010B1204601F0C7F925
:10075000059800F04000402827D1039800F02000C1
:1007600018B32068406820F060002168486026497E
:100770002068884201D1254801E04FF040204068C0
:1007800020F0A000204A2168914201D11F4901E0D8
:100790004FF040214860012084F84100606C40F037
:1007A00002006064204600F034F8049800F008006D
:1007B000082827D1029800F0200018B312492068B9
:1007C000884201D1114801E04FF04020406820F0FC
:1007D000A0000D4A2168914201D10C4901E04FF07F
:1007E000402148602068406820F06000216848602F
:1007F000012084F84100606C40F0040060642046F1
:1008000000F007F806B010BD00380040003400408A
:10081000704770472DE9F047044614B90120BDE840
:10082000F08794F8410038B9002084F84000674808
:100830006063204600F0D2F8022084F8410020686E
:10084000C06940F6BF7188432168C86102202168F1
:100850000862606902283CD0E06808B9102600E010
:100860002026A068202800D87600012000F004FA95
:1008700080462069B0F5007F17D1E06850B1B00024
:10088000B8FBF0F000EB800041006069B1FBF0F0D4
:10089000451D13E0F000B8FBF0F000EB80004100D4
:1008A0006069B1FBF0F0451D08E0B8FBF6F000EB25
:1008B000800041006069B1FBF0F0451D0A20B5FBE6
:1008C000F0F505F00109A5EB090047084FEA0929F1
:1008D00002E002274FF00009022F01D3FF2F05D9B4
:1008E000606C40F010006064012098E7206940EAE5
:1008F0000900384321680862606840F40060A1681C
:100900000843E1680843A16908432168C96940F6C2
:10091000BF72914308432168C861206A01284DD104
:100920002B4860632B492068884201D12A4801E0A6
:100930004FF04020C06940F6BF718843254A2168C6
:10094000914201D1244901E04FF04021C8610220C9
:10095000204A2168914201D11F4901E04FF0402116
:1009600008621C492068884201D11B4801E04FF011
:100970004020C0691FFA80FA6068B0F5007F01D09E
:10098000606810B94FF4807500E00025A8B240F40B
:100990000060218989B20843A18989B20843218B6B
:1009A00089B2084340EA0A0A0A492068884201D10C
:1009B000094801E04FF04020C0F81CA0002060640E
:1009C000012084F84100002029E70000291C0008CC
:1009D000CD050008003800400034004010B58AB052
:1009E0000446142105A8FFF723FC00200190029083
:1009F000039004902E492068884257D1012001902D
:100A0000C02002900221039101A800F07FF908B1F3
:100A1000FFF74DFC00BF002000902648006840F41E
:100A20008040244908600846006800F48040009037
:100A300000BF00BF00BF002000901E4810380068B3
:100A400040F004001B49103908600846006800F0B7
:100A50000400009000BF00BF00BF002000900846C7
:100A6000006840F0020008600846006800F00200DC
:100A7000009000BF00BF08200590022006900020D3
:100A8000079008900520099005A90B48FFF790FCF6
:100A90004FF4A05005900220069000200790089087
:100AA0000520099005A90548FFF782FC0AB010BD92
:100AB0000038004040380240000802400004024074
:100AC00070477047034800680349097808440149A2
:100AD00008607047040000200C00002010B50D488D
:100AE000006840F400700B4908600846006840F454
:100AF000806008600846006840F480700860032049
:100B000000F0A6F80F2000F007F800F02BF8002006
:100B100010BD0000003C024070B504460E4800784D
:100B20004FF47A71B1FBF0F00C490968B1FBF0F5B4
:100B3000284600F049FD08B1012070BD102C07D2F5
:100B400000222146501E00F045F80548046001E0EF
:100B50000120F2E70020F0E70C0000201000002048
:100B60000800002008B500BF002000900E48006873
:100B700040F480400C4908600846006800F480405A
:100B8000009000BF00BF00BF00200090081F006859
:100B900040F08050091F08600846006800F080504F
:100BA000009000BF00BF08BD44380240014608461F
:100BB00000280DDB00BF00BF00F01F0301229A4098
:100BC00043099B0003F1E023C3F8002100BF00BFED
:100BD00000BF70472DE9F05F80460D46164600279E
:100BE00001F02EFD074639462A46334601F007003C
:100BF000C0F1070ABAF1040F02D94FF0040A01E06C
:100C0000C0F1070AD14600F1040ABAF1070F02D277
:100C10004FF0000A01E0A0F1030AD4464FF0010AA8
:100C20000AFA09FAAAF1010A0AEA020A0AFA0CFA0D
:100C30004FF0010B0BFA0CFBABF1010B0BEA030BB2
:100C40004AEA0B042146404601F002FDBDE8F09F50
:100C500000BF00F00702064B19684FF6FF0319406A
:100C6000044B0B4343EA0221014B196000BF70475C
:100C70000CED00E00000FA0570B5014600200022EE
:100C800000230024012935D11C4D2D6805F40003F3
:100C900023B1B3F5000F29D1194829E0174D2D1FB5
:100CA0002D6805F48005B5F5800F08D1134D2D1F73
:100CB0002D6805F03F05134EB6FBF5F207E00F4D2A
:100CC0002D1F2D6805F03F050F4EB6FBF5F20B4DBD
:100CD0007C352D68C5F3881505FB02F4074D7C357E
:100CE0002D68C5F30275B4FBF5F001E0002000BFEC
:100CF00000BF00E000BF00BF70BD00000838024028
:100D00000080BB0000127A000024F400F8B504460D
:100D100000250026207800F0010020B9207800F09E
:100D2000040004282FD100205B498866FFF748FCA7
:100D3000054606E0FFF744FC401B022801D90320CA
:100D4000F8BD56480068C0F3C0600028F2D1606862
:100D50008101207A41EA0070504984310860012005
:100D60004D498866FFF72CFC054606E0FFF728FC96
:100D7000401B022801D90320E2E748480068C0F37D
:100D8000C0600028F2D0207800F0020002287DD157
:100D900000BF0020009041484030006840F0805083
:100DA0003E49403108600846006800F080500090DD
:100DB00000BF00BF3A48006840F4807038490860BE
:100DC000FFF7FEFB054606E0FFF7FAFB401B022893
:100DD00001D90320B4E73248006800F4807000288D
:100DE000F2D02E487030006800F440764EB3A089EF
:100DF00000F44070B04224D028487030006820F4DD
:100E000040760120274908600020086023487030A0
:100E10000660006800F0010098B1FFF7D1FB0546BD
:100E200008E0FFF7CDFB401B41F28831884201D931
:100E3000032085E7194870300068C0F3400000289F
:100E4000EFD000BFA08900F44070B0F5407F0CD116
:100E500012480830006820F4F810134AE168114085
:100E600008430E490831086007E00C480830006864
:100E700020F4F8100949083108600848703000680B
:100E8000A189C1F30B010843044900E002E070317D
:100E9000086000BF002053E70000474200380240CE
:100EA00000700040400E4742FFFCFF0F70B5044643
:100EB0000D460CB9012070BD5848006800F00700CD
:100EC000A84209D255490D700846006800F0070095
:100ED000A84201D00120EEE7207800F002000228AD
:100EE0001DD1207800F00400042805D14C4800688A
:100EF00040F4E0504A490860207800F008000828D3
:100F000005D14748006840F46040454908604448BE
:100F1000006820F0F000A16808434149086020788B
:100F200000F00100A8B36068012807D13C480838E8
:100F30000068C0F34040B8B90120BCE760680228EF
:100F400002D06068032807D1354808380068C0F32C
:100F5000406048B90120AEE7314808380068C0F366
:100F6000400008B90120A6E72D48006820F00300E2
:100F7000616808432A490860FFF722FB064609E03A
:100F8000FFF71EFB801B41F28831884202D9032003
:100F900091E707E02248006800F00C006168B0EBC0
:100FA000810FEDD11D48006800F00700A84209D963
:100FB0001A490D700846006800F00700A84201D0E9
:100FC000012078E7207800F00400042807D11448B5
:100FD000006820F4E050E168084311490860207877
:100FE00000F00800082808D10D48006820F460408F
:100FF000216940EAC1000A49086000F03FF8084949
:101000000968C1F30311074A515CC84006490860EA
:1010100006480068FFF780FD00204CE7003C0240D6
:1010200008380240742A0008100000200800002040
:1010300001480068704700001000002000B5FFF76D
:10104000F7FF04490968C1F38221034A515CC84093
:1010500000BD000008380240842A000800B5FFF7F0
:10106000E7FF04490968C1F34231034A515CC840B3
:1010700000BD000008380240842A00082DE9F0472E
:10108000002400250026A1462548006800F00C0039
:1010900020B1042805D008283AD105E0DFF8849073
:1010A00039E0DFF8849036E01D48001F006800F04A
:1010B0003F041B48001F006800F4800078B11A4804
:1010C0001749091F0968C1F38811A0FB0170014687
:1010D000224600233846FFF773F805460EE0114814
:1010E0000F49091F0968C1F38811A0FB017001466F
:1010F000224600233846FFF763F805460848001FDC
:101100000068C0F30140401C4600B5FBF6F902E060
:10111000DFF8109000BF00BF4846BDE8F087000030
:10112000083802400024F40000127A00F8B50446A2
:101130000CB90120F8BD207800F00100002874D01F
:10114000F948006800F00C0004280DD0F64800684B
:1011500000F00C00082813D1F348001F006800F4C9
:101160008000B0F5800F0BD1EF4808380068C0F35D
:101170004040002859D06068002856D10120D9E7A6
:1011800000BF6068B0F5803F08D1E74808380068C4
:1011900040F48030E449083908601EE06068B0F52A
:1011A000A02F0DD1E0480838006840F48020DE49C7
:1011B000083908600846006840F4803008600CE098
:1011C000D9480838006820F48030D74908390860C9
:1011D0000846006820F48020086000BF606890B175
:1011E000FFF7EEF9054606E0FFF7EAF9401B642831
:1011F00001D903209EE7CC4808380068C0F340407E
:101200000028F1D011E0FFF7DBF9054606E0FFF713
:10121000D7F9401B642801D903208BE7C24808385E
:101220000068C0F340400028F1D1207800F00200AF
:1012300002285FD1BC48006800F00C0058B1BA48E1
:10124000006800F00C0008281CD1B748001F006897
:1012500000F48000B0B9B44808380068C0F340001A
:1012600020B1E068012801D0012063E7AE480838CA
:10127000006820F0F800216940EAC100AA49083955
:10128000086037E0E06800B30120A8490860FFF774
:1012900097F9054606E0FFF793F9401B022801D9AC
:1012A000032047E7A04808380068C0F34000002842
:1012B000F1D09D480838006820F0F800216940EA24
:1012C000C10099490839086014E000209749086076
:1012D000FFF776F9054606E0FFF772F9401B022892
:1012E00001D9032026E7904808380068C0F3400081
:1012F0000028F1D1207800F0080008282CD160697E
:10130000A8B101208A490860FFF75AF9054606E0AE
:10131000FFF756F9401B022801D903200AE782484B
:101320006C300068C0F340000028F1D014E00020C9
:101330007F490860FFF744F9054606E0FFF740F9EA
:10134000401B022801D90320F4E677486C3000687E
:10135000C0F340000028F1D1207800F004000428F8
:1013600070D1002770483830006800F0805090B984
:1013700000BF002000906C483830006840F080507A
:101380006949383108600846006800F080500090D4
:1013900000BF00BF01276748006800F48070B0B943
:1013A0006448006840F4807062490860FFF708F9FB
:1013B000054606E0FFF704F9401B022801D9032087
:1013C000B8E65C48006800F480700028F2D000BFE6
:1013D000A068012808D154486830006840F0010036
:1013E0005149683108601DE0A06805280DD14E48BC
:1013F0006830006840F004004B49683108600846D6
:10140000006840F0010008600CE047486830006860
:1014100020F001004449683108600846006820F067
:101420000400086000BFA068A8B1FFF7C9F805462E
:1014300009E0FFF7C5F8401B41F28831884202D924
:10144000032077E626E0384868300068C0F34000A3
:101450000028EED013E0FFF7B3F8054608E0FFF7E9
:10146000AFF8401B41F28831884201D9032061E680
:101470002D4868300068C0F340000028EFD1012FEC
:1014800007D129483830006820F08050264938318B
:10149000086000BFA069002845D02348006800F01C
:1014A0000C0008285DD0A069022845D100201F4902
:1014B0000866FFF785F8054606E0FFF781F8401B50
:1014C000022801D9032035E6174808380068C0F320
:1014D00040600028F1D1D4E907010843616A40EA7D
:1014E00081110122A06AC2EB500041EA00412C2088
:1014F000005D41EA00600C49091F086001200B49AA
:101500000866FFF75DF8054606E0FFF759F8401B4F
:10151000022801D903200DE6034808380068C0F30B
:1015200040600028F1D049E00838024000004742FE
:10153000800E474200700040002021490866FFF7F6
:101540003FF8054606E0FFF73BF8401B022801D9AB
:101550000320EFE51B480068C0F340600028F2D18B
:101560002CE0A069012800D1E4E51648001D0668BA
:10157000A069012820D006F48001E06981421BD1D6
:1015800006F03F01206A814216D147F6C070304014
:10159000616AB0EB811F0FD106F440310122A06ACD
:1015A000C2EB5000B1EB004F06D106F070612C2069
:1015B000005DB1EB006F01D00120BBE50020B9E573
:1015C000000047420038024070B504462546681EB8
:1015D000B0F1807F01D301200FE0681E4FF0E021C1
:1015E00048610F214FF0FF3001F032F800204FF03A
:1015F000E021886107200861002070BD70477047B6
:101600002DE9F84F0446206805682068C668206800
:1016100047694FF00009CA4605F00F09B9F1000FFC
:101620000AD105F0200038B106F0200020B1204694
:1016300000F0E1FDBDE8F88FB9F1000F7CD007F0B4
:10164000010018B906F49070002875D005F001006B
:1016500030B106F4807018B1606C40F00100606435
:1016600005F0040030B107F0010018B1606C40F0E3
:101670000200606405F0020030B107F0010018B10B
:10168000606C40F00400606405F0080048B106F0AA
:10169000200010B907F0010018B1606C40F008009C
:1016A0006064606C002846D005F0200028B106F088
:1016B000200010B1204600F09EFD20684069C0F374
:1016C000801A606C00F0080010B9BAF1000F2DD03C
:1016D000204600F04AFD2068406900F040004028A4
:1016E00020D100BF00BF2168143151E8001F21F054
:1016F00040002168143141E80002002AF3D100BF04
:10170000E06B50B17F48E16B0865E06BFEF728FEA7
:1017100088B1E06B016D88470DE02046FFF76FFF51
:1017200009E009E02046FFF76AFF04E02046FFF7E2
:1017300066FF002060647DE7206B012878D105F00A
:101740001000002874D006F010000028FAD000BF66
:101750000020009020680068009020684068009099
:1017600000BF00BF2068406900F04000402870D1F1
:10177000E06B006840681FFA80F8B8F1000F58D09D
:10178000A08D404555DDA4F82E80E06BC069B0F512
:10179000807F43D000BF00BF21680C3151E8001F9B
:1017A00021F4807021680C3141E80002002AF3D155
:1017B00000BF00BF00BF2168143151E8001F21F0B5
:1017C00001002168143141E80002002AF3D100BF72
:1017D00000BF00BF2168143151E8001F21F0400014
:1017E0002168143141E80002002AF3D100BF202013
:1017F00084F842000020206300BF00BF21680C3144
:1018000051E8001F21F0100021680C3141E800026E
:10181000002AF3D100BFE06BFEF74CFD02206063AD
:10182000A08DE28D801A81B22046FFF7E7FE0EE020
:1018300052E0A08D40450AD1E06BC069B0F5807FD1
:1018400005D102206063A18D2046FFF7D7FEF1E6A7
:10185000FFE7A08DE18D401A1FFA80F8E08DD0B32C
:10186000B8F1000F37D000BF00BF21680C3151E83C
:10187000001F21F4907021680C3141E80002002A19
:10188000F3D100BF00BF00BF2168143151E8001F31
:1018900021F001002168143141E80002002AF3D14F
:1018A00000BF202084F842000020206300BF00BF5A
:1018B00021680C3151E8001F21F0100021680C3123
:1018C00041E80002002AF3D100BF022060634146D4
:1018D0002046FFF793FEADE605F0800030B106F03C
:1018E000800018B1204600F01BFEA3E605F0400082
:1018F00030B106F0400018B1204600F06CFC99E6CB
:1019000000BF97E65921000810B504460CB9012024
:1019100010BDA06900B100E000BF94F8410028B9F3
:10192000002084F84000204600F02AF8242084F8A3
:1019300041002068C06820F400502168C86020463B
:1019400000F0D8FC2068006920F49040216808610C
:101950002068406920F02A00216848612068C0683A
:1019600040F400502168C86000206064202084F8A2
:10197000410084F842000020606300BFC8E7000017
:1019800010B586B00446142101A8FEF751FC1F498A
:101990002068884238D100BF002000901C480068B1
:1019A00040F010001A4908600846006800F0100076
:1019B000009000BF00BF00BF002000901448143802
:1019C000006840F0010012491439086008460068B8
:1019D00000F00100009000BF00BF4FF4C060019014
:1019E000022002900020039003200490072005901D
:1019F00001A90848FEF7DCFC002211462520FFF76C
:101A0000E9F82520FFF7D2F806B010BD001001401C
:101A1000443802400000024070472DE9F84F044668
:101A20000E46174699464FF0000A94F841002028C8
:101A300050D106B117B90120BDE8F88F00206064CD
:101A4000212084F84100FEF7BBFD8246A784E7848D
:101A5000A068B0F5805F04D1206910B90025B046B8
:101A600002E035464FF000081EE053460022802178
:101A70002046CDF8009000F083FD20B1202084F8AE
:101A800041000320D8E745B9B8F80000C0F30800CA
:101A90002168486008F1020803E02878216848605E
:101AA0006D1CE08C401EE084E08C0028DDD15346A4
:101AB000002240212046CDF8009000F061FD20B1C9
:101AC000202084F841000320B6E7202084F841005C
:101AD0000020B1E70220AFE7704700BFFEE710B576
:101AE00004462068C06881B2E26A901CE0621180FE
:101AF000608E401E6086608E68B92068406820F065
:101B0000600021684860608D28B9012084F8410098
:101B10002046FEF77DFE10BD10B50446174920682B
:101B2000884201D1164801E04FF04020C06881B2E0
:101B3000E26A901CE0621180608E401E6086608EBA
:101B4000D8B90E492068884201D10D4801E04FF014
:101B50004020406820F06000084A2168914201D18D
:101B6000074901E04FF040214860608D28B901200D
:101B700084F841002046FEF74BFE10BD00380040BF
:101B80000034004010B50446616A881C6062088811
:101B90002168C860608D401E6085608D68B92068CE
:101BA000406820F0A00021684860608E28B90120BC
:101BB00084F841002046FEF72BFE10BD10B5044608
:101BC000616A881C60620888154A2168914201D1C7
:101BD000144901E04FF04021C860608D401E6085CF
:101BE000608DD8B90E492068884201D10D4801E0C6
:101BF0004FF04020406820F0A000094A216891423F
:101C000001D1084901E04FF040214860608E28B9B9
:101C1000012084F841002046FEF7FAFD10BD0000C7
:101C200000380040003400401CB50446206880683D
:101C3000019094F84100042830D1019800F001008F
:101C400038B120684068C0F3801010B1204600F021
:101C500059F8019800F0400040281FD120684068E2
:101C6000C0F34010D0B12068406820F060002168C7
:101C7000486000BF002000902068C0680090206885
:101C80008068009000BF00BF012084F84100606CB4
:101C900040F0020060642046FEF7BBFD94F841006E
:101CA00003282ED1019800F00200022807D12068F5
:101CB0004068C0F3C01010B1204600F03EF8019813
:101CC00000F0080008281CD120684068C0F34010CC
:101CD000B8B12068406820F0A0002168486000BFCB
:101CE0000020009020688068009000BF00BF0120A5
:101CF00084F84100606C40F0040060642046FEF708
:101D000088FD1CBD10B504462068C068E16A0880E3
:101D1000E06A801CE062608E401E6086608E58B96A
:101D20002068406820F0600021684860012084F845
:101D300041002046FEF7C4FE10BD10B50446606A9F
:101D400000882168C860606A801C6062608D401EE7
:101D50006085608D58B92068406820F0A000216837
:101D60004860012084F841002046FEF7AAFE10BD1D
:101D700000B587B0142102A8FEF75AFA00BF002070
:101D800001903748006840F0040035490860084673
:101D9000006800F00400019000BF00BF00BF0020F9
:101DA00001900846006840F080000860084600681E
:101DB00000F08000019000BF00BF00BF0020019034
:101DC0000846006840F0010008600846006800F01E
:101DD0000100019000BF00BF00BF00200190084635
:101DE000006840F0020008600846006800F0020049
:101DF000019000BF00BF012203211A48FEF7DAFB61
:101E00000022C0211848FEF7D5FB00224FF40061E4
:101E10001448FEF7CFFB032002901120039001200D
:101E200004900320059002A90E48FEF7C1FAC020D5
:101E300002900120039000200490059002A90A4816
:101E4000FEF7B6FA4FF400600290012003900020E4
:101E50000490059002A90348FEF7AAFA07B000BD56
:101E600030380240000802400000024010B50B4824
:101E70000B49086040154860002109488160C16035
:101E800001610849416100218161C1610162FEF780
:101E9000C1FC08B1FEF70BFA10BD0000003800408D
:101EA000180000200077010010B50B480B490860AE
:101EB0004FF4E1304860002108488160C160016151
:101EC0000C21416100218161C161FFF71DFD08B155
:101ED000FEF7EDF910BD0000001001406000002089
:101EE00000BFFEE700BFFEE77047704710B500F087
:101EF00053F800F00DF800F063F800F009F800F076
:101F000041F800F005F800F047F800F001F810BDC6
:101F100010B5022000F020FD10BD10B500F032F821
:101F200000F044F810BD10B500F036F8FFF7F0FFF0
:101F300000F03CF8FFF7ECFF00F024F8FFF7E8FFB3
:101F400000F02AF8FFF7E4FF10BD70B5002400256B
:101F500010E000F021F8FFF7DBFF00F013F8FFF7C7
:101F6000D7FF6006040E00F035F808B144F0010414
:101F7000681CC5B2082DECDB00F00EF8FFF7C8FFB7
:101F8000204670BD10B5012211460248FEF712FB33
:101F900010BD00000008024010B5002201210248D7
:101FA000FEF708FB10BD00000008024010B501223A
:101FB00002210248FEF7FEFA10BD000000080240B0
:101FC00010B5002202210248FEF7F4FA10BD00000D
:101FD0000008024010B502210148FEF7E3FA10BDE7
:101FE0000008024070B50446FFF7D6FF002515E053
:101FF00004F0800010B1FFF7D9FF01E0FFF7E0FF28
:102000006006040EFFF784FFFFF7BCFFFFF780FFB9
:10201000FFF7C2FFFFF77CFF681CC5B2082DE7DBA6
:1020200070BD10B5FFF7C2FFFFF7ACFFFFF770FF01
:10203000FFF7C6FFFFF76CFFFFF7AEFFFFF768FF84
:1020400010BD10B5FFF7BCFFFFF7A6FFFFF760FF5D
:10205000FFF798FFFFF75CFFFFF7A8FFFFF758FFB8
:1020600010BD10B50024FFF7A1FFFFF751FFFFF7E8
:1020700089FFFFF74DFFFFF78FFFFFF749FF0020B4
:1020800010BD10B5FEF71EFD10BD000000B593B0E9
:10209000302107A8FEF7CCF8142102A8FEF7C8F8F3
:1020A00000BF002001902548006840F0805023497F
:1020B00008600846006800F08050019000BF00BF33
:1020C00000BF002001901E48006840F480401C4979
:1020D00008600846006800F48040019000BF00BF1F
:1020E0000220079001200A9010200B9002200D90F2
:1020F00000210E9110210F91C02110910221119108
:102100000421129107A8FFF711F808B1FEF7CFF8E4
:102110000F20029002200390802004904FF4A050E2
:1021200005904FF480500690012102A8FEF7BEFEF4
:1021300008B1FEF7BCF813B000BD00004038024003
:10214000007000400348006840F4700001490860D6
:102150007047000088ED00E070B50446A56B0020D4
:10216000E8852846FFF74BFA70BD00BF00BF026844
:102170000C3252E8002F22F4907102680C3242E8CF
:102180000013002BF3D100BF00BF00BF0268143260
:1021900052E8002F22F001010268143242E80013D5
:1021A000002BF3D100BF016B01290ED100BF00BF8E
:1021B00002680C3252E8002F22F0100102680C3243
:1021C00042E80013002BF3D100BF202180F8421019
:1021D00000210163704710B504462068C06820F0F4
:1021E00040002168C860202084F841002046FFF7A5
:1021F00073FC002010BDF8B504460025002694F8B5
:102200004200222873D1A068B0F5805F0BD120690D
:1022100048B9A66A20684068C0F308003080A06A08
:10222000801CA06214E0A56AA068B0F5805F03D0AE
:10223000A06828B9206918B920684068287004E0AF
:102240002068406800F07F002870A06A401CA062EF
:10225000E08D401E80B2E085002846D12068C0682D
:1022600020F020002168C8602068C06820F48070D9
:102270002168C8602068406920F001002168486139
:10228000202084F8420000206063206B012826D1C2
:102290000020206300BF00BF21680C3151E8001FFF
:1022A00021F0100021680C3141E80002002AF3D12E
:1022B00000BF2068006800F0100010280AD100BF9D
:1022C000002000902068006800902068406800901E
:1022D00000BF00BFA18D2046FFF790F902E0204625
:1022E000FFF79AFB0020F8BD01E00020FBE7022089
:1022F000F9E700002DE9F84F04462068006920F452
:102300004050E1680843216808612169A0680843DA
:1023100061690843E169084300902068C06849F298
:102320000C618843009908432168C86020684069AF
:1023300020F44070A169084321684861764920680B
:10234000884203D075492068884203D1FEF786FE93
:10235000814602E0FEF772FE8146E069B0F5004F6B
:102360006CD102206168A0FB015003461920A9FB33
:10237000007001462A463846FDF722FF6421B0FB73
:10238000F1F04FEA001A02206168A0FB01510B46F0
:102390001920A9FB00712A463846FDF711FF834634
:1023A00002206168A0FB015003461920A9FB0071BF
:1023B0002A463846FDF704FF6421B0FBF1F000EB3C
:1023C000C00101EB0010ABEB8000322101EBC0003B
:1023D0006421B0FBF1F000F0F8000AEB400A0220A3
:1023E0006168A0FB015003461920A9FB007001465B
:1023F0002A463846FDF7E4FE834602206168A0FBCA
:10240000015003461920A9FB00712A463846FDF702
:10241000D7FE6421B0FBF1F000EBC00101EB00102E
:10242000ABEB8000322101EBC0006421B0FBF1F086
:1024300000F007005044216888606AE00420616869
:10244000A0FB015003461920A9FB007001462A4653
:102450003846FDF7B5FE824604206168A0FB0150B6
:1024600003461920A9FB007001462A463846FDF7AD
:10247000A7FE6421B0FBF1F000EBC00101EB0010FE
:10248000AAEB8000322101EB00106421B0FBF1F0D7
:1024900000F0F00A04206168A0FB017003461920D7
:1024A000A9FB00513A462846FDF78AFE6421B0FB9D
:1024B000F1F00AEB001A04206168A0FB01510B4601
:1024C0001920A9FB00712A463846FDF779FE83469C
:1024D00004206168A0FB015003461920A9FB00708D
:1024E00001462A463846FDF76BFE6421B0FBF1F049
:1024F00000EBC00101EB0010ABEB8000322101EBDF
:1025000000106421B0FBF1F000F00F00504421688E
:102510008860BDE8F88F0000001001400014014001
:10252000014691F84100212828D18868B0F5805FE4
:102530000BD1086948B90A6A1088C0F308000B6813
:102540005860086A801C086205E00B6A581C086223
:1025500018780B685860C88C401E80B2C88458B97F
:102560000868C06820F080000B68D8600868C06800
:1025700040F040000B68D860002070470220FCE764
:102580002DE9F84304460D4617469846089E31E06B
:10259000701C70B3FEF714F8A0EB0800B04200D82E
:1025A00016B90320BDE8F8832068C06800F0040075
:1025B000F8B1802D1ED0402D1CD020680068C0F3DB
:1025C000C000B0B100BF00200090206800680090FB
:1025D00020684068009000BF00BF2046FFF7C5FD9F
:1025E0000820606400BF002084F8400000BF012084
:1025F000D8E7FFE7206800682840A84201D1012001
:1026000000E00020B842C3D00020CBE710B502485C
:10261000FEF7F6FF10BD00006000002000BFFEE7DF
:102620000FB4054B10B503A9044A029800F034F822
:1026300010BC5DF814FB00008D2900081400002078
:1026400002480068C0F30220704700000CED00E073
:1026500010B5002804DB0A07130E054A135406E0E0
:102660000A07140E034A00F00F031B1FD45410BDB9
:1026700000E400E018ED00E002E008C8121F08C105
:10268000002AFAD170477047002001E001C1121FF3
:10269000002AFBD1704700002DE9FF4F8DB09B460B
:1026A0000F460446002606E025280BD05A460F990F
:1026B0009047641C761C20780028F5D111B0304674
:1026C000BDE8F08F0025A8460122984900E00543A7
:1026D00014F8013F203B02FA03F00842F7D12078BA
:1026E0002E2817D114F8010F45F004052A280ED022
:1026F0006FF02F022078A0F1300109290AD808EBE9
:10270000880102EB410100EB0108641CF2E757F875
:10271000048B641C20786C280DD004DC4C2812D06B
:102720006A2811D104E074280DD07A280CD10AE06F
:1027300045F4001507E0617845F48015814202D127
:10274000641C05F58015641C2278692A45D008DCD4
:10275000002AB3D0582A69D0632A10D0642A08D13D
:102760003BE0702A67D0732A13D0752A5CD0782A90
:102770005CD010465A460F999047761CD3E017F864
:10278000040B8DF8000000208DF80100E9460120BF
:1027900003E057F8049B4FF0FF3069074FF0000546
:1027A00001D40AE06D1C45450DDA8542FADB19F8C3
:1027B00005100029F6D106E06D1C8542FCDB19F8F6
:1027C00005100029F8D12E4404E019F8010B5A46EF
:1027D0000F9990476D1EF8D2A5E00A200021CDE99F
:1027E0000801C5F3025002280DD001CFC117031E06
:1027F00071F100030DDA4FF0000CD0EB0C006CEB24
:1028000001012D2308E0FF1D27F00707F7E802016B
:10281000EDE72B0504D52B238DF8283001233BE071
:10282000EB0739D02023F7E70A2000E01020002131
:10283000CDE9080107E01020002145F00405CDE9AD
:1028400008014FF00808C5F3025002280FD001CF4D
:1028500000214FF0000A2B071FD5702A0DD0DDE9AB
:1028600008C38CF0100C5CEA030C0CD015E0FF1DC3
:1028700027F00707F7E80201EBE740228DF8282050
:102880004FF0010A0BE050EA010306D030238DF827
:1028900028308DF8292002239A46582A04D024A2F1
:1028A0000DF120090B9209E026A2F9E7DDE90823E2
:1028B000FDF786FC0B9B9B5C09F8013D50EA010289
:1028C000F4D1ADEB090020300890680701D44FF037
:1028D00001080899884502DDA8EB010000E000200E
:1028E0008046002506E00AA85A46405D0F999047A9
:1028F0006D1C761C5545F6DB04E030205A460F99D6
:102900009047761CB8F10001A8F10108F5DC05E05C
:1029100019F8010B5A460F999047761C0899481EE2
:1029200008900029F4DC641CC5E6000009280100B9
:102930003031323334353637383961626364656635
:1029400000000000303132333435363738394142F7
:10295000434445460000000009490968094AB1FBA3
:10296000F2F141438908084A116000BF06490A682C
:102970000968491E044B1960002AF7D1704700000E
:102980001000002040420F000000002013B50C464C
:102990004FF6FF73012269460248FFF73EF80098A0
:1029A0001CBD0000600000201CB5FEF797F8FFF783
:1029B0006DFBFFF7DDF9FFF759FAFFF775FAFFF73F
:1029C000ACFA27A000680190012240212548FDF7BC
:1029D000F1FDFFF726FB2020FFF704FBFFF741FB8B
:1029E0009DF80400FFF7FEFAFFF73BFB9DF805009A
:1029F000FFF7F8FAFFF735FB9DF80600FFF7F2FA4C
:102A0000FFF72FFB9DF80700FFF7ECFAFFF729FB14
:102A1000FFF717FB6420FDF7B7FC002000901EE0D5
:102A2000FFF7FFFA2120FFF7DDFAFFF71AFBFFF7A8
:102A30008CFA8DF80000FFF759FAFFF786FA8DF847
:102A40000100FFF770FAFFF7FCFA9DF801209DF8EE
:102A5000001005A0FFF7E4FD6420FDF795FCDFE71B
:102A6000E305000000000240307825782C307825FE
:102A7000780A0000000000000000000001020304CA
:102A8000060708090000000001020304AC2A000840
:102A9000000000201800000078260008C42A000862
:102AA00018000020900400008826000800000000A4
:102AB0000000000010000000010000000024F400ED
:042AC0000000000012
:040000050800018965
:00000001FF
