:1006620054484520466F7574204953203A004D483E
:020672007A000C
:0306740001160864
:10017900E475135E751201F511F510120631AF130E
:10018900AE12AD11AC1012055B7BFF7A06796212D3
:10019900064CAC12AD137F421204427FC812067E90
:1001A9007BFF7A06797012064C1200033000FAC2FE
:1001B90000E47FB27E02FDFCAB13AA12A911A810BC
:1001C900C312041E4018E47F5A7E05FDFCA810D313
:1001D90012041E50097F3C7E447D500202B9E47F1F
:1001E9005A7E05FDFCAB13AA12A911A810D312045B
:1001F9001E4018E47FB47E0AFDFCA810D312041E29
:1002090050097F3C7E447D400202B9E47FB47E0AF6
:10021900FDFCAB13AA12A911A810D312041E401792
:10022900E47F727E15FDFCA810D312041E50087FCE
:100239003C7E147D308079E47F727E15FDFCAB1322
:10024900AA12A911A810D312041E4017E47FEE7E4A
:100259002AFDFCA810D312041E50087F3C7E147D91
:1002690020804DE47FEE7E2AFDFCAB13AA12A91172
:10027900A810D312041E4017E47FE67E55FDFCA8A2
:1002890010D312041E50087F3C7E147D108021E497
:100299007FE67E55FDFCAB13AA12A911A810D31253
:1002A900041E7F3C40067E147D0080047EA47D6090
:1002B9007C001205C8AC12AD137F42120442E51648
:1002C90024C0FF12067EAF13AE12AD11AC10780F29
:0902D90012042F1205C80201B243
:1000030030B20C30B30930B40630B5030201787F47
:10001300147E0012061320B22330B2FD1516E51626
:10002300B406021516E516C394025003751607E5C8
:100033001624C0FF12067E7F0D12067E20B3713098
:10004300B3FDE51624FE60301460211460131460C0
:100053000A24FE7039E5132401800AE513240A807B
:1000630004E5132464F513E435128016E51324E83C
:10007300F513E5123403800AE5132410F513E51292
:100083003427F512E43511F511E43510F510E47F4A
:10009300E07EABFDFCAB13AA12A911A810C3120496
:1000A3001E400BE47513E07512ABF511F510D20089
:1000B30030B40302016A30B4FDE51624FE60511426
:1000C300602514601514600B24FE7079C3E5139446
:1000D30001800CC3E513940A8005C3E5139464F50A
:1000E30013E51294008050E47BE87A03F9F8AF1328
:1000F300AE12AD11AC1012038C8E148F15E515459D
:10010300146042C3E51394E8F513E51294038027C2
:10011300E47B107A27F9F8AF13AE12AD11AC1012CD
:10012300038C8E148F15E51545146019C3E51394DC
:1001330010F513E5129427F512E5119400F511E576
:10014300109400F510D200E47F5E7E01FDFCAB133A
:10015300AA12A911A810C312041E500BE475135E52
:10016300751201F511F51020B50B30B5FD7F0C129A
:06017300067E751608224D
:10063100C2A27F3812067E7F0C12067E7F0612064A
:0B0641007E7F0112067E7F8002067E95
:10060200C2A18F807F057E00120613D2A27F057ED3
:0106120000E7
:10061300D3EF9400EE940040147D6E7C00ED1D70CA
:0D062300011CED4C70F7EF1F70E61E80E328
:0106300022A7
:08067E00C2A0120602C2A22272
:08068600D2A0120602C2A2225A
:10064C001202E2FFD39400400C120686740129F9C1
:06065C00E43AFA80EB22F3
:060442008F08AB05AA04BF
:100448007C277D10AF03AE021202FB7C007D0A12EE
:1004580002FBED2430F5097C037DE8AF03AE021200
:1004680002FB7C007D0A1202FBED2430F50A7C00B9
:100478007D64AF03AE021202FB7C007D0A1202FB10
:10048800ED2430F50B7C007D0AAF03AE021202FBAF
:100498007C007D0A1202FBED2430F50C750D2EAEA2
:1004A80002AF037C007D0A1202FBED2430F50EE555
:1004B800082480FF12067EE4FB74092BF8E6FF127D
:0604C80006860BBB06F3E3
:0104CE00220B
:0606770004170000007DE5
:10055B008F0B8E0A8D098C08D2947F0512068EC2E2
:10056B0097D295C2967F057E007D587C001205C8F8
:10057B007F3C7EA47D607C001205C87FB37E047D2A
:10058B00607C001205C8AF1AAE19AD18AC17780E07
:10059B0012042FEF44C2FFEE443FFEEC440DFC125D
:1005AB0005C87F117E807D007C081205C8AF0BAE9D
:0D05BB000AAD09AC08780F12042F0205C824
:0805C8008F0F8E0E8D0D8C0CBF
:1005D000C297C295E4FBE50C54806004D296800279
:1005E000C296AF0FAE0EAD0DAC0C780112042F8F7A
:1005F0000F8E0E8D0D8C0CD297C2970BBB20D7D2CD
:010600009564
:0106010022D6
:07068E00AE071FEE70FA2217
:030000000204CF28
:0C04CF00787FE4F6D8FD75812002051648
:1002E200BB010689828A83E0225002E722BBFE021A
:0902F200E32289828A83E493224D
:1002FB00BC000BBE0029EF8DF084FFADF022E4CCE7
:10030B00F875F008EF2FFFEE33FEEC33FCEE9DECAF
:10031B00984005FCEE9DFE0FD5F0E9E4CEFD22EDF5
:10032B00F8F5F0EE8420D21CFEADF075F008EF2F3F
:10033B00FFED33FD4007985006D5F0F222C398FD30
:05034B000FD5F0EA22CD
:1003500075F008758200EF2FFFEE33FECD33CDCC64
:1003600033CCC58233C5829BED9AEC99E5829840E7
:100370000CF582EE9BFEED9AFDEC99FC0FD5F0D6C4
:10038000E4CEFBE4CDFAE4CCF9A88222B800C1B9EE
:100390000059BA002DEC8BF084CFCECDFCE5F0CB2C
:1003A000F97818EF2FFFEE33FEED33FDEC33FCEB65
:1003B00033FB10D703994004EB99FB0FD8E5E4F920
:1003C000FA227818EF2FFFEE33FEED33FDEC33FC0D
:1003D000C933C910D7059BE99A4007EC9BFCE99A01
:1003E000F90FD8E0E4C9FAE4CCFB2275F010EF2F46
:1003F000FFEE33FEED33FDCC33CCC833C810D70746
:100400009BEC9AE899400AED9BFDEC9AFCE899F880
:0E0410000FD5F0DAE4CDFBE4CCFAE4C8F92213
:10041E00EB9FF5F0EA9E42F0E99D42F0E89C45F034
:01042E0022AB
:10042F00E8600FEFC333FFEE33FEED33FDEC33FC2B
:03043F00D8F122CF
:1004DB00020179E493A3F8E493A34003F68001F2BD
:1004EB0008DFF48029E493A3F85407240CC8C33322
:1004FB00C4540F4420C8834004F456800146F6DFF1
:10050B00E4800B0102040810204080900674E47E06
:10051B00019360BCA3FF543F30E509541FFEE493E5
:10052B00A360010ECF54C025E060A840B8E493A3AC
:10053B00FAE493A3F8E493A3C8C582C8CAC583CAD7
:10054B00F0A3C8C582C8CAC583CADFE9DEE780BE8F
:01067D00007C
:00000001FF
