:020000040800F2
:10000000C80600204D020008B310000811100008B7
:10001000B110000843040008B512000800000000F9
:100020000000000000000000000000001D12000899
:100030004504000800000000B51000081F12000869
:1000400067020008670200086702000867020008EC
:1000500067020008670200086702000867020008DC
:1000600067020008670200086702000867020008CC
:1000700067020008670200086702000867020008BC
:1000800067020008670200086702000867020008AC
:10009000670200086702000867020008670200089C
:1000A000670200086702000867020008670200088C
:1000B000670200086702000867020008670200087C
:1000C000670200086702000867020008670200086C
:1000D000670200086702000867020008670200085C
:1000E000670200086702000867020008670200084C
:1000F000670200086702000867020008670200083C
:10010000670200086702000867020008670200082B
:10011000670200086702000867020008670200081B
:10012000670200086702000867020008670200080B
:1001300067020008670200086702000867020008FB
:1001400067020008670200086702000867020008EB
:1001500067020008670200086702000867020008DB
:1001600067020008670200086702000867020008CB
:10017000670200086702000867020008000000002C
:1001800067020008670200086702000867020008AB
:10019000670200086702000867020008670200089B
:1001A00067020008670200086702000800F002F812
:1001B00000F03CF80AA090E8000C82448344AAF1C5
:1001C0000107DA4501D100F031F8AFF2090EBAE8C3
:1001D0000F0013F0010F18BFFB1A43F0010318477B
:1001E0004411000064110000103A24BF78C878C19F
:1001F000FAD8520724BF30C830C144BF04680C602D
:10020000704700000023002400250026103A28BF74
:1002100078C1FBD8520728BF30C148BF0B60704778
:100220001FB501F072F81FBD10B510BD00F0CFF87A
:100230001146FFF7F5FF01F04EF800F0EDF803B4BA
:10024000FFF7F2FF03BC00F0F5F800000948804713
:1002500009480047FEE7FEE7FEE7FEE7FEE7FEE7A8
:10026000FEE7FEE7FEE7FEE704480549054A064BC0
:1002700070470000A5120008AD010008C80000206A
:10028000C8060020C8020020C802002053EA020C61
:1002900000F069802DE9F04B4FF00006002B1FBFE6
:1002A000B3FA83F503FA05F424FA05F65E4012BFAB
:1002B0001643B2FA82F502FA05F4C5F120051EBF15
:1002C00022FA05FC44EA0C04203556EA044C4FEAB5
:1002D000144418BF641C4FF000084FF0000990420E
:1002E00071EB030C39D3002919BFB1FA81F701FA78
:1002F00007F6B0FA80F700FA07F6C7F120071EBF2D
:1003000020FA07FC46EA0C062037B6FBF4FCA7EB04
:100310000507103F07F01F0BCBF120060CFA0BFB73
:100320002CFA06F644BFB3460026202FA4BF5E4633
:100330004FF0000B5BEA060C08BF4FF0010B19EB06
:100340000B09ABFB027C48EB0608C01B06FB02CC8A
:100350000BFB03CC71EB0C01C1E70B460246414697
:100360004846BDE8F08B13B54FF000004FF0000198
:10037000AFF30080BDE81C4070474FF0000200B5AD
:10038000134694469646203922BFA0E80C50A0E8B8
:100390000C50B1F12001BFF4F7AF090728BFA0E866
:1003A0000C5048BF0CC05DF804EB890028BF40F832
:1003B000042B08BF704748BF20F8022B11F0804F74
:1003C00018BF00F8012B704770477047704775469B
:1003D00000F02CF8AE4605006946534620F00700B1
:1003E000854618B020B5FFF73FFFBDE820404FF02D
:1003F00000064FF000074FF000084FF0000B21F00F
:100400000701AC46ACE8C009ACE8C009ACE8C009DB
:10041000ACE8C0098D46704710B50446AFF30080C4
:100420002046BDE81040FFF70ABF000000487047B3
:100430006800002001491820ABBEFEE7260002003C
:100440007047FEE77047000070B5044600F02EF9D3
:100450000546601C02D004480078044400F026F9E8
:10046000401BA042FAD370BD000000202DE9F84FD8
:10047000DFF8F8A10022012403254FF00F090AF14B
:10048000040BAAF1040E00BF0B6804FA02F6334015
:10049000B34270D10F7907F00307012F01D0022F6B
:1004A00016D187684FEA420805FA08FC27EA0C07CC
:1004B000D1F80CC00CFA08FC4CEA070CC0F808C0D4
:1004C0004768B7430E79C6F3001696403E43466030
:1004D0000E79F643B6070AD0C7684FEA420C05FA10
:1004E0000CF6B7438E6806FA0CF63E43C6600E79EA
:1004F00006F00306022E10D1D60800EB8608D8F8C5
:10050000206057074FEAD76C09FA0CF7BE430F6912
:1005100007FA0CF73743C8F8207006684FEA420C18
:1005200005FA0CF7BE430F7907F0030707FA0CF73B
:10053000374307604E6816F4403F1CD04C4E376876
:1005400047F480473760366822F0030706F4804698
:100550000096484E07EB060CDCF8086897073F0F3B
:1005600009FA07F826EA0806DFF80C81404503D1AE
:100570004FF0000841E072E0DFF80081404502D111
:100580004FF0010839E0DFF8F880404502D14FF024
:10059000020832E0DFF8EC80404502D14FF003085A
:1005A0002BE0DFF8E480404502D14FF0040824E05E
:1005B000DFF8D880404502D14FF005081DE0DFF894
:1005C000D080404502D14FF0060816E0DFF8C48025
:1005D000404502D14FF007080FE0DFF8BC804045EE
:1005E00002D14FF0080808E0DFF8B080404502D1A2
:1005F0004FF0090801E04FF00A0808FA07F848EA46
:100600000608CCF80888DAF800605746D1F804C02C
:100610009E435FEACC2C00D51E433E60DBF80060B1
:100620005F46D1F804C09E435FEA8C2C00D51E4380
:100630003E60DEF800607746D1F804C09E435FEA72
:100640008C3C00D51E433E60084F083F3E68D1F801
:1006500004C09E435FEACC3C00D51E433E60521C62
:10066000102AFFF411AFBDE8F88F0000083C0140EC
:1006700044380240003001400000024000040240C3
:1006800000080240000C024000100240001402402A
:1006900000180240001C02400020024000240240DA
:1006A0000AB1816170470904FBE7000001488068D6
:1006B0007047000000000020024881680278114461
:1006C00081607047000000200B4810B5016841F4BC
:1006D00000710160016841F480610160016841F4CA
:1006E00080710160032000F061F80F2000F006F82F
:1006F00000F024F8002010BD003C024070B50D4D04
:1007000004464FF47A712878B1FBF0F00A49096881
:10071000B1FBF0F000F068FC48B9102C07D20022C1
:100720002146501E00F022F800206C6070BD0120B0
:1007300070BD0000000000200C0000200A4808B531
:10074000016841F480410160006800F4804000903D
:100750000548001F016841F080510160006800F009
:100760008050009008BD000044380240F0B40E4BA9
:100770001B680C46C3F30223C3F10705042D00D9FF
:100780000425191D072901D2002300E0DB1E0126E4
:1007900006FA05F1491E214099409E40761E1640FA
:1007A0003143F0BC00F087BD0CED00E0064900F0DD
:1007B000070208684FF6FF03184040EA0220034A88
:1007C00010430860704700000CED00E00000FA05DF
:1007D0002DE9F0470E46050065D0DFF81481D8F802
:1007E0000000F7B200F00F00B04207D288F80070A6
:1007F000D8F8000000F00F00B04254D128683D4CFA
:10080000810712D5400703D5206840F4E0502060EE
:100810002878000703D5206840F4604020602068F5
:10082000A96820F0F000084320602878C0072DD088
:10083000304968680839012812D0022813D00328EB
:1008400011D00968890700292DDA216821F00301F8
:1008500001432160FFF72AFF814641F2883A0EE00A
:1008600009688903EFE709688901ECE7FFF71EFFD4
:10087000A0EB0901514502D90320BDE8F0872068AB
:10088000696800F00C00B0EB810FEFD1D8F80010D0
:10089000404601F00F01B14207D90770006800F02F
:1008A0000F00B04201D00120E7E72878400705D5C6
:1008B0002068E96820F4E0500843206028780007A9
:1008C00006D52068296920F4604040EAC100206014
:1008D00000F018F82168084AC1F30311515CC840C0
:1008E0000649086006480068FFF708FF0020C4E7D3
:1008F000003C024008380240141300080C0000209D
:1009000004000020154810B5006810F00C021448CF
:1009100013D01449042A0FD0082A0ED10F4C241FDB
:100920002268236802F03F025B0207D52068C0F30B
:100930008810A0FB010106E0084610BD2168C1F344
:100940008811A1FB00010023FFF7A0FC2168C1F37F
:100950000141491C4900B0FBF1F010BD08380240CC
:100960000024F40040787D012DE9F84F04006ED09A
:100970002078DFF84C93C007A9F104054AD009F1AB
:1009800004000168C1F38101012908D00068C0F3A7
:10099000810002280AD1D9F80000400206D5286853
:1009A000800337D560680028E1D033E06068B0F597
:1009B000803F10D0B0F5A02F286810D020F48030F0
:1009C0002860286820F4802028606068A8B1FFF7BC
:1009D0006DFE06460DE0286840F48030F4E740F4F0
:1009E00080202860F7E700BFFFF760FE801B6428C7
:1009F00073D828688003F7D50CE0FFF757FE06464A
:100A000005E000BFFFF752FE801B6428F0D828687D
:100A10008003F7D42078DFF8AC8280074FF0000A1B
:100A20003ED5A748001D016811F00C0F08D00068E2
:100A3000C0F3810002280BD1D9F80000400207D48E
:100A40002868800716D5E068012800D112E033E15C
:100A5000E068B8B10120C8F80000FFF727FE06469D
:100A600005E000BFFFF722FE801B0228C0D82868DF
:100A70008007F7D52868216920F0F80040EAC10016
:100A800028600DE0C8F800A0FFF710FE064604E05D
:100A9000FFF70CFE801B02281FD828688007F7D4B8
:100AA0002078000722D5864F87486169703771B179
:100AB00001210160FFF7FAFD064604E0FFF7F6FDAD
:100AC000801B022809D838688007F7D50EE0C0F8E7
:100AD00000A0FFF7EBFD064605E082E0FFF7E6FD2C
:100AE000801B02287DD838688007F7D4207840071B
:100AF00068D5DFF8CCB100270BF13C0BDBF8000028
:100B0000C0000BD4DBF8001041F08051CBF800108E
:100B1000DBF80000012700F0805000906B4E306839
:100B2000C00510D4306840F480703060FFF7BEFD1F
:100B3000009005E0FFF7BAFD0099401A022850D84E
:100B40003068C005F6D55E4EA0686C3601280FD01F
:100B50000528306810D020F001003060306820F0A7
:100B600004003060A068B8B1FFF7A0FD00900FE06E
:100B7000306840F00100F4E740F004003060F7E72F
:100B8000FFF794FD0099411A41F28830814266D8FE
:100B900030688007F4D50EE0FFF788FD009007E08D
:100BA000FFF784FD0099411A41F28830814256D8FE
:100BB00030688007F4D42FB1DBF8001021F08051A9
:100BC000CBF80010A069C8B33D49091D0968C1F3FD
:100BD000810102294AD00228504607D0C8F8600097
:100BE00000E03CE0FFF762FD04463BE04746C8F802
:100BF0006000FFF75BFD064605E000BFFFF756FD0E
:100C0000801B02282BD828688001F7D4D4E907017B
:100C10000843A16A2E4A490802EB0141626A41EA8F
:100C20008211084394F82C1040EA0161C9F80010C1
:100C300001203866FFF73AFD044606E03EE000BFBB
:100C4000FFF734FD001B022809D828688001F7D57A
:100C500034E000BFFFF72AFD001B022802D9032061
:100C6000BDE8F88F28688001F4D427E00128F7D088
:100C7000D9F80000E26900F4800191421CD1226A97
:100C800000F03F01914217D147F6C071626A0140FE
:100C9000B1EB821F10D1A26A4FF0FF3300F4403154
:100CA00003EB5202B1EB024F06D194F82C1000F086
:100CB0007060B0EB016F01D00120D1E70020CFE7D9
:100CC0000438024000004742800E47420070004056
:100CD0000000FFFF70B5040009D0606A002540B134
:100CE00025616561A56294F8510040B10CE00120D6
:100CF00070BD6068B0F5827FF4D0E561F2E784F8FA
:100D00005050204600F044F8022084F8510020683A
:100D1000016821F040010160A088218900F48270FF
:100D200001F404410843A18901F400610843217CD6
:100D300001F002010843217D01F001010843218BEC
:100D400001F400710843217F01F03801084394F851
:100D5000201001F080010843218D01F40051084367
:100D600021680860A069042101EA104094F8241069
:100D700001F010010843216848602068C16921F42E
:100D80000061C1616565012084F85100002070BDDB
:100D900010B586B0044614216846FFF7EEFA1349F1
:100DA0002068884220D112480021026842F4805213
:100DB0000260006800F4805005900D481438026805
:100DC00042F001020260006800F001000590E0209E
:100DD00000900220CDE9010103200390052004903A
:100DE00069460448FFF742FB06B010BD00300140E1
:100DF00044380240000002402DE9FF4F81B01D46FB
:100E0000934604464FF001090E9EFFF74FFC07463C
:100E100094F851006168012806D0B1F5827F3CD179
:100E2000A168C9BB042838D10298002871D0BBF151
:100E3000000FFBD0002DF9D094F8500001282CD0E1
:100E40004FF0010A84F850A094F85100042802D011
:100E5000052084F851004FF00008C4F85480C4F80D
:100E600038B0E587A58702992163E586A586C4F891
:100E70004080C4F8448020680168490603D40168B2
:100E800041F040010160E068B0F5006F606808D093
:100E9000F0B3012D49D081E0FFE7022005B0BDE8A5
:100EA000F08F08B1012D39D1206B21680088C8600E
:100EB000206B801C2063E08E401EE0862EE02068C0
:100EC000816889070FD5E18E69B1B9F1010F0AD1A7
:100ED000216B0988C160206B801C2063E08E401E5E
:100EE000E0864FF0000920688168C9070CD0E18FC7
:100EF00051B1C068A16B0880A06B801CA063E08F1B
:100F0000401EE0874FF00109FFF7D0FBC01B01E056
:100F10000BE067E0B04201D3701C50D1E08E002896
:100F2000CDD1E08F0028CAD13EE0206B2168007847
:100F30000873206B401C2063E08E401EE0862DE08D
:100F40002068816889070FD5E18E69B1B9F1010F79
:100F50000AD1216B09780173206B401C2063E08E5D
:100F6000401EE0864FF0000920688168C9070CD058
:100F7000E18F51B1C068A16B0870A06B401CA063E9
:100F8000E08F401EE0874FF00109FFF78FFBC01B89
:100F9000B04202D3701C01D011E086B1E08E00286F
:100FA000CED1E08F0028CBD13A463146204600F022
:100FB00083F850B12020606584F8508012E084F8F6
:100FC00051A084F85080032068E7A06818B9206811
:100FD000C1688068009084F851A084F85080606DEA
:100FE0000028F1D0012059E710B5401EB0F1807FF4
:100FF00001D3012010BD4FF0E02460610F21601784
:1010000000F059F90020A06107202061002010BDE8
:10101000FEE7000030B587B014216846FFF7ADF950
:1010200011480024016841F080010160016801F06D
:1010300080010591016841F00101016000680B4DDC
:1010400000F001000590012210212846FFF728FB3F
:10105000102000900120CDE9010469462846039440
:10106000FFF704FA07B030BD3038024000000240FC
:101070000E4810B50C4901604FF4827141600021A7
:101080008160C1604FF400720161C0E90512C16165
:101090000162416281620A21C162FFF71BFE0028E2
:1010A00001D072B6FEE710BD0030014010000020F4
:1010B000FEE7FEE770470000F8B515460E460B4602
:1010C000009204460122022100F04CF8A0B9134816
:1010D00013490068B0FBF1F04FF47A714843009077
:1010E0006068B0F5827F0DD1334600228021204612
:1010F000009500F037F870B1606D40F02000606539
:101100000320F8BD009830B1401E00902068806830
:10111000C0430006F6D50020F8BD00000C000020FA
:1011200000366E0111B583B000200C4C8DF8040020
:10113000024610212046FFF7B3FA642000900123F5
:1011400001AA03A90648FFF757FE012210212046F5
:10115000FFF7A6FA9DF8040004B010BD000002409D
:10116000100000202DE9F8431E46914688460446AB
:10117000089DFFF79BFA401B351AFFF797FA0746C1
:1011800025480068C0F3CB30684338E0701C37D086
:10119000FFF78CFAC01BA84203D215B1009860B3C8
:1011A0002CE02068416821F0E00141606068B0F502
:1011B000827F0BD1A068B0F5004F02D0B0F5806FF0
:1011C00004D12068016821F040010160A06AB0F5F7
:1011D000005F09D12068016821F400510160206896
:1011E000016841F400510160012084F851000020A1
:1011F00084F850000320BDE8F8830025401E0090CD
:101200002068816838EA010004D000214945BDD139
:101210000020F0E70121F9E70C0000207047FFF7FC
:101220004BBA000030B593B030216846FFF7A5F8FF
:1012300014210CA8FFF7A1F818480024016841F018
:1012400080510160006800F08050119014480168DE
:1012500021F4404141F4804101600068012500F41F
:10126000404011904FF4A0200694CDE9005068460C
:10127000FFF77AFB08B172B6FEE70F200C90CDE9BC
:101280000D540F9400210CA81094FFF7A1FA002828
:1012900001D072B6FEE713B030BD00004038024006
:1012A000007000400248016841F47001016070471D
:1012B00088ED00E0FEE70907090E002804DB00F1D5
:1012C000E02080F80014704700F00F0000F1E020EB
:1012D00080F8141D7047FFF7F7F9FFF7A3FFFFF73A
:1012E00099FEFFF7C5FEFFF7EFF9FFF79BFFFFF74A
:1012F00091FEFFF7BDFE00244FF47A752046FFF7FC
:1013000011FF2846FFF7A0F8F8E74FF04070E1EE34
:10131000100A7047000000000000000001020304F2
:101320000607080944130008000000201000000010
:10133000E80100085413000810000020B80600005F
:10134000040200080100000010000000000000007E
:041350000024F40081
:04000005080001AD41
:00000001FF
